:020000040800F2
:100000000000042431710008F5700008F970000840
:10001000FD70000801710008057100080000000073
:10002000000000000000000000000000F14B00088C
:100030000971000800000000814C00087557000895
:1000400081710008817100088171000881710008C8
:1000500081710008817100088171000881710008B8
:1000600081710008817100088171000881710008A8
:100070008171000881710008817100088171000898
:100080008171000881710008817100088171000888
:100090008171000881710008817100088171000878
:1000A0008171000881710008817100088171000868
:1000B0000D710008817100088171000881710008CC
:1000C0008171000881710008817100088171000848
:1000D0008171000881710008817100088171000838
:1000E0008171000881710008000000008171000822
:1000F0008171000881710008817100088171000818
:100100008171000881710008817100088171000807
:1001100081710008817100088171000881710008F7
:1001200081710008817100088171000881710008E7
:1001300081710008817100088171000881710008D7
:1001400081710008817100080000000000000000BB
:1001500081710008817100088171000881710008B7
:1001600081710008817100088171000881710008A7
:100170008171000881710008817100080000000091
:100180008171000881710008817100088171000887
:100190008171000881710008817100088171000877
:1001A0008171000881710008817100088171000867
:1001B0008171000881710008817100088171000857
:1001C0008171000881710008817100088171000847
:1001D0008171000881710008817100088171000837
:1001E0008171000881710008817100088171000827
:1001F0008171000881710008817100088171000817
:100200008171000881710008817100088171000806
:1002100081710008817100088171000881710008F6
:1002200081710008817100088171000881710008E6
:1002300081710008817100088171000881710008D6
:10024000817100081971000825710008817100088A
:1002500081710008817100088171000881710008B6
:1002600081710008817100088171000881710008A6
:100270008171000881710008817100088171000896
:100280008171000881710008817100080000000080
:08029000817100088171000872
:1002A00010B5054C237833B9044B13B10448AFF3B0
:1002B00000800123237010BDFC0100240000000019
:1002C000BC8B000808B5034B1BB103490348AFF3CF
:1002D000008008BD0000000000020024BC8B000864
:1002E000034613F8012B002AFBD1181A0138704776
:1002F00053B94AB9002908BF00281CBF4FF0FF318D
:100300004FF0FF3000F06EB9ADF1080C6DE904CE8E
:1003100000F006F8DDF804E0DDE9022304B07047E0
:100320002DE9F047089D04468C46002B40F0838061
:100330008A42174647D9B2FA82F242B1C2F120008E
:1003400024FA00F09140974040EA010C94404FEAB3
:100350001748230CBCFBF8F61FFA87FE08FB16C1F2
:1003600043EA014306FB0EF1994209D9FB1806F155
:10037000FF3080F01981994240F21681023E3B44E1
:100380005B1AA4B2B3FBF8F008FB103344EA034451
:1003900000FB0EFEA64509D93C1900F1FF3380F0A1
:1003A0000581A64540F2028102383C4440EA0640FD
:1003B000A4EB0E0400261DB1D4400023C5E9004380
:1003C0003146BDE8F08702B9FFDEB2FA82F2002AB8
:1003D00050D1CB1B4FEA174E1FFA87F80126B3FB0B
:1003E000FEFC210C0EFB1C3341EA034108FB0CF31D
:1003F0008B4207D979180CF1FF3002D28B4200F200
:10040000E9808446C91AA3B2B1FBFEF00EFB1011BD
:1004100043EA014408FB00F8A04507D93C1900F164
:10042000FF3302D2A04500F2D9801846A4EB08049D
:1004300040EA0C40BFE78B4209D9002D00F0B180A3
:100440000026C5E9000130463146BDE8F087B3FA21
:1004500083F6002E4AD18B4202D3824200F2B8804A
:10046000841A61EB030101208C46002DA8D0C5E958
:10047000004CA5E7C2F1200320FA03F6974001FAE9
:1004800002F04FEA174ED9403043030CB1FBFEF6A1
:100490001FFA87F80EFB161143EA014306FB08F129
:1004A000994204FA02F409D9FB1806F1FF3C80F0E6
:1004B0008D80994240F28A80023E3B445B1A81B2B1
:1004C000B3FBFEF00EFB103341EA034100FB08F3DF
:1004D0008B4207D9791800F1FF3C73D28B4271D956
:1004E00002383944CB1A40EA064678E7C6F1200CB8
:1004F00003FA06F422FA0CF31C4320FA0CF701FA73
:1005000006F34FEA144E21FA0CF11F433B0CB1FBEA
:10051000FEF91FFA84F80EFB191143EA014109FBA9
:1005200008FA8A4502FA06F200FA06F308D96118B9
:1005300009F1FF3048D28A4546D9A9F10209214480
:10054000A1EB0A01BFB2B1FBFEF00EFB101147EAAE
:10055000014700FB08F8B84507D9E71900F1FF315A
:100560002ED2B8452CD90238274440EA0940A7EBDF
:100570000807A0FB02894F45C64649461AD317D043
:100580005DB1B3EB0E0267EB010707FA0CFCF2401A
:100590004CEA0202F740C5E9002700263146BDE8D3
:1005A000F0872E4628460BE70646E9E61846FDE6A4
:1005B0004345E5D2B8EB020E69EB04010138DFE7F1
:1005C0000846D2E760468DE78146B9E7664675E79B
:1005D00030464AE7ACF1020C394413E702383C4498
:1005E00024E700BF704700BF104BF0B55C7ADCB960
:1005F00093F809E002465E7A04F0FF005D7A4FF05E
:100600003A0C5C7A03EB86062F271D447260621C4D
:1006100030342872D2B203F80E005A720C70C870CF
:1006200081F801C08F70F0BD0120F0BD18020024D8
:10063000D2014FF0000C2DE9F04F84320468486875
:1006400083B0A318E568D1F80C80D3F804E0C5F3B3
:100650000B450E6805EB000A0EF47045019006F19B
:10066000010B88685D60E56800F10109D1F810E0D0
:10067000C5F30B45384F5D44D1F818B045EA0A453B
:100680005D60D4F80CA09D68CAF30A0A05F47045B1
:10069000C244D1F814809D60E568C5F30A054D4455
:1006A00045EA0A459D601D6925F007051D61C3F8EF
:1006B00010E09D6991F831A091F83290C3F818C00C
:1006C00091F8305045EA0B6545EA0A2545EA0945A7
:1006D0009D615D6925F0FF055D61C3F81480DD69EA
:1006E0002F40CD69DF61D1E908070543DD619D6ACF
:1006F000C3F828C09F62BEF1000F0BD0BEF1010FFE
:1007000026D0AEF10205022D02D9BEF1070F21D18C
:10071000022700E004270198DD6A801B05F0E02530
:1007200007FB00F0D1E90A6C0730DD6206FB07F633
:100730000A4940EA0640D862186B01401963C3F8C1
:1007400030C0A35843F00103A35003B0BDE8F08FBD
:100750000327E0E70127DEE7F8F8FFFF00F8FFFFD7
:1007600000286DD0F8B590F8A130044603F0FF02E0
:10077000002B60D0A0680225E668002184F8A15013
:1007800025696769D4F818C0D4E900320243986932
:10079000324320F070402B4E98612A43986901251E
:1007A00002439A619A6832409A60986840EA07402A
:1007B000E76940EA0C00D4F820C09860D86830405F
:1007C000D860DA6842EA0742676A42EA0C02D4F863
:1007D00028C0DA601A6932401A61186940EA074095
:1007E000E76A40EA0C001861586906405E615A6980
:1007F000206B42EA074202435A61D86A94F8357086
:1008000000F07F4094F83660D862D86A94F83420BB
:100810000243084642EA072242EA0642DA625A6B7B
:1008200042F006025A639A692A439A61C4F8A410F6
:1008300084F8A150F8BD80F8A02006F085F899E76B
:100840000120704700F800F090F8A030012B28D06C
:10085000022394462DE9F04134244FF001080D465F
:1008600080F8A13004FB0204064680F8A0800F4601
:1008700038340FCD0FC40FCD0FC40FCD0FC42B686C
:100880006246304639462360FFF7D2FE00233268C5
:100890001846C2F8248086F8A18086F8A030BDE80A
:1008A000F0810220704700BF037C012B00F0AB8079
:1008B00000230268C2F8C430C2F8C830CB07816197
:1008C00055D54FF6FF7310B4D2F8C4402343C2F895
:1008D000C4308B0705D5D2F8C43043F4F813C2F8FE
:1008E000C4304C0705D5D2F8C83043F00103C2F834
:1008F000C8300B0705D5D2F8C83043F00203C2F860
:10090000C830CC0605D5D2F8C83043F00C03C2F885
:10091000C8308B0605D5D2F8C83043F01003C2F8B2
:10092000C8304C0605D5D2F8C83043F02003C2F8D1
:10093000C8300B0605D5D2F8C83043F04003C2F8E2
:10094000C830CC0505D5D2F8C83043F08003C2F8D2
:10095000C830890505D5D2F8C83043F4F853C2F839
:10096000C8300023037418465DF8044B70478B07AA
:1009700005D5D2F8C43043F4F813C2F8C4304B079D
:1009800005D5D2F8C83043F00103C2F8C8300B07D0
:1009900005D5D2F8C83043F00203C2F8C830CB0600
:1009A00005D5D2F8C83043F00C03C2F8C8308B0626
:1009B00005D5D2F8C83043F01003C2F8C8304B0652
:1009C00005D5D2F8C83043F02003C2F8C8300B0672
:1009D00005D5D2F8C83043F04003C2F8C830CB0583
:1009E00005D5D2F8C83043F08003C2F8C8308B0573
:1009F00005D5D2F8C83043F4F853C2F8C830002304
:100A00000374184670470220704700BF002800F0AA
:100A1000B380F0B5437C83B00D460446002B00F054
:100A2000A88023680321002261740092D3F8302447
:100A300042F08072C3F83024D3F8303403F080736E
:100A40000093009B00F0D8FB064606E000F0D4FBC4
:100A5000831BB3F57A7F00F289802368D3F80C24D6
:100A6000D104F3D56A680020D3F830742E68D2021E
:100A7000424942EA8602AE68394042EA0642C3F879
:100A80003014D3F830140A43C3F830240190D3F85B
:100A9000302442F00102C3F83024D3F8303403F09C
:100AA00001030193019B00F0A7FB064605E000F05F
:100AB000A3FB801BB0F57A7F58D82368D3F80C24A9
:100AC000D205F4D5D3F8A02046F2A81C676800210F
:100AD00042F00602E668D4F808E0C3F8A020D3F894
:100AE000942022F00302C3F89420D3F894006A689B
:100AF0003843012A40F0010038BF0122C3F89400B6
:100B0000D3F8A400174620F00300C3F8A400D3F8DC
:100B1000A420A86832432D6800F00300C3F8A42085
:100B20009E680CFB05F5164A26F0FF0602FB07F24D
:100B30009E609E68824046EA0E069E600126D3F8BB
:100B40001804B2FBF5F220F03F00C3F81804084681
:100B5000D3F818542A43C3F81824C3F8C410C3F8B0
:100B6000C8106161A161667403B0F0BD032003B0D9
:100B7000F0BD05F017FE54E7012070470386FCFF27
:100B800000093D00027C012A0ED00268034630B401
:100B9000146B002524F0030428461463146B2143CE
:100BA00011631D7430BC704702207047037C012B19
:100BB00073D00368D1F800C08A69F0B40446586B5A
:100BC000CE69002540F00100324358632846D3F82F
:100BD000007427F00107C3F80074D3F8007447F0DD
:100BE0000107C3F80074DF6827F00307DF60DE68E1
:100BF0004F6946EA0C06D1F804C03A43DE605E69EC
:100C000026F007065E615E693243254E5A611A6915
:100C100022F00F021A611A6942EA0C021A61D3F833
:100C2000002422F00E02C3F80024D3F8007447EA2F
:100C30004C07D1F808C0C3F800745A6E16405E66BF
:100C40005A6E42EA0C025A66D3F80064D1E90327CF
:100C500026F0F0063A434F6A3A430F6AC3F800643D
:100C60003A43D3F800748E6A3A43C3F80024996E6D
:100C700021F0010199669A6E32439A66D3F80824EE
:100C800042F00102C3F80824D3F8082442F002021B
:100C9000C3F808242574F0BC70470220704700BFD9
:100CA0000000FFFF037C012B2DD00B680246F0B43F
:100CB000D1E90105154F00240343D1E903062B4375
:100CC0004D69034388693343CE692B430D6A03435F
:100CD000486A334316682B43B56E0343886A2F4036
:100CE0000D6B0343C86AB7660343B16E20460B43DE
:100CF000B366B16E21F00201B166B36E2B43B366E9
:100D00001474F0BC70470220704700BFFF80F0FEF3
:100D1000027C012A0ED00268034630B4D46A002552
:100D200024F01F042846D462D46A2143D1621D7482
:100D300030BC704702207047037C012B38D0036819
:100D40008A68F0B4D3F8986004464D6812060868C3
:100D500006F0FC2600278542C3F89860CE6838BFAD
:100D60000546D3F8980042EA06420E6940EA05407B
:100D700032434E692843C3F898003846D3F89C5054
:100D800005F40045C3F89C50D3F89C100A43C3F8FF
:100D90009C20D3F8A41021F47F41C3F8A410D3F809
:100DA000A42042EA0622C3F8A4202774F0BC7047AE
:100DB00002207047037C012B68D00368D1F804C07F
:100DC000334AF0B59F6804460868002627F47F4739
:100DD000D1F808E09F609D6845EA00259D609F6FFF
:100DE000BFB29F67986F40EA0C40D1F80CC098677B
:100DF0009F6F17409F679D6F45EA0E05D1F810E081
:100E00009D67DD6F1540DD67D86F40EA0C00D1F8B3
:100E100014C0D867D3F880001040C3F88000304673
:100E2000D3F8807047EA0E07C3F88070D3F8847057
:100E30001740C3F88470D3F8845045EA0C05C3F812
:100E40008450D3F884508F6925F08075C3F884509E
:100E5000D3F884503D43D1E907C7C3F88450D3F891
:100E600088501540C3F88850D3F8881041EA0C0127
:100E7000C3F88810D3F88C100A40C3F88C20D3F83C
:100E80008C203A43C3F88C202674F0BD02207047B2
:100E90000000FFFF027C012A13D00268034630B431
:100EA000D2F81C44002524F0C0642846C2F81C4433
:100EB000D2F81C4444EA4161C2F81C141D7430BCD1
:100EC00070470220704700BF002836D070B5437FBE
:100ED000044603F0FF0263B3022223796277F3B979
:100EE0002368174A5A619A6822F018029A60627958
:100EF0008AB122691A61996801256269002021F08E
:100F00006001A669114399609A6822F08002324319
:100F10009A60657770BD4FF0FF321A61EBE7E268C7
:100F20002046A16801F060FC08B92368DFE70120D2
:100F300070BD027705F01EFCCEE70120704700BFB0
:100F4000B71DC1042DE9F04F0E6885B0002E00F0EA
:100F5000D3800023DFF820A2DFF820B2B14620E0E2
:100F6000DA0803F0070C04F003044FF00F0E00EB57
:100F700082020E694FEA8C0C04FA07F7146A0EFA23
:100F80000CFE06FA0CF624EA0E0C46EA0C06166273
:100F9000026815403D430560013339FA03F200F061
:100FA000AB8001229A4012EA0908F5D04C685F0034
:100FB00024F0100C0CF1FF35012D4FF0030500F269
:100FC0009E80C4F30016D0F808E0BD409E402EEA93
:100FD000050EED430196CE68BE4046EA0E0E019E18
:100FE000C0F808E0D0F804E02EEA0202164346609A
:100FF000C668BCF1020F8A6806EA050602FA07F223
:1010000042EA0602C260ABD0066804F003022E403A
:1010100002FA07F73E430660E600BDD5DAF8F46051
:1010200023F0030703F003020F2546F0020607F141
:10103000B0479200CAF8F46007F58067DAF8F46008
:1010400005FA02FC06F002060396424E039DB042EA
:10105000BD6825EA0C0520D006F58066B04256D062
:101060003D4EB04258D03D4EB0424BD03C4EB042C7
:101070005CD03C4EB0425ED03B4EB04251D03B4E75
:10108000B0425DD03A4EB0425FD03A4EB0420CBF53
:1010900009260A2606FA02F21543BD606FEA080621
:1010A000DBF80020E50303F1010354BF324048EAB6
:1010B0000202CBF80020A203DBF804504FF0B0424C
:1010C00054BF354048EA0505E702CBF804501568DF
:1010D0004FF0B04254BF354048EA0505A4024FF036
:1010E000B0441560526854BF324048EA0202626060
:1010F00039FA03F27FF455AF05B0BDE8F08FBD407B
:10110000ED4375E7032606FA02F21543C5E701260B
:1011100006FA02F21543C0E7022606FA02F2154368
:10112000BBE7062606FA02F21543B6E7042606FADE
:1011300002F21543B1E7052606FA02F21543ACE7C1
:10114000072606FA02F21543A7E7082606FA02F276
:101150001543A2E70000025800080258000C02588C
:10116000001002580014025800180258001C0258BF
:101170000020025800240258004402588000005801
:1011800038B50320124C01F09DFB124D01F03EFFDB
:10119000114B0246002099699B69C1F3032103F0BA
:1011A0000F03615CE35C01F01F010C4C03F01F03B3
:1011B000CA4022FA03F322602B6005F04FFC10B105
:1011C0000124204638BD044605F0BAFA204638BD51
:1011D0005C8C0008280000240044025824000024ED
:1011E000034A044B11681B780B441360704700BF1F
:1011F0003C4B002400000024014B1868704700BFDE
:101200003C4B0024014B1868000C70470010005C38
:101210000268354B354930B4354C364DA24218BFC3
:101220009A4204F148040CBF012300238A4208BFFC
:1012300043F001034831AA4208BF43F00103483597
:10124000A24208BF43F0010348348A4208BF43F07A
:10125000010301F56271AA4208BF43F0010305F5DD
:101260006275A24208BF43F0010304F562748A422A
:1012700008BF43F001034831AA4208BF43F001030D
:101280004835A24208BF43F0010348348A4208BFF0
:1012900043F001034831AA4208BF43F00103A242D0
:1012A00008BF43F001038A4208BF43F0010313B9AA
:1012B000114B9A4213D1D3B21049114C103BA1FBF0
:1012C00003515F2B0F4BC1F3021103EA0203615C70
:1012D00088BF0433C1658365184630BC704722F06F
:1012E000FF038365F8E700BF1000024040000240A2
:1012F0002800024058000240B8040240ABAAAAAA43
:10130000D88B000800FCFFFF0368294A294930B444
:10131000294D2A4CAB4218BF934205F13C050CBF46
:1013200001220022A34208BF42F001023C348B425A
:1013300008BF42F001023C31AB4208BF42F001025B
:10134000A34208BF42F001028B4208BF42F00102F3
:1013500012B91B4A934213D1DBB21A4D1A4A01212A
:10136000083B1A4CA5FB0353446602EB1312C3F36C
:101370000413920001FA03F30266836630BC7047DF
:10138000DAB21349134C1944103AA829A4FB0223DA
:101390004FEA131300D808330F4A03F01F05012149
:1013A0000E4C1A44A9404466920081660266E5E745
:1013B00008540258445402581C54025830540258DD
:1013C00094540258CDCCCCCC0096001680580258CC
:1013D000F0FBFDBFABAAAAAA008200108008024061
:1013E00070B40479611E072930D802681C4B1D4E69
:1013F0001D4DB24218BF9A4206F128060CBF0123C8
:101400000023AA4208BF43F001032835B24208BFB7
:1014100043F001032836AA4208BF43F001032835F0
:10142000B24208BF43F00103AA4208BF43F00103E0
:1014300013B90E4B9A420BD10D4B0E4A234402674F
:101440009B00C366012303FA01F1416770BC70473A
:10145000094B0A4A234402679B00C366F2E700BFB8
:10146000085402581C5402583054025894540258DC
:101470003F960016405902583F8200104009024032
:10148000F8B50446FFF7B8FE002C00F08981236808
:101490000546954A934249D01832934246D01832B5
:1014A00092489349834218BF934200F130000CBF29
:1014B000012200228B4208BF42F0010230318342F8
:1014C00008BF42F0010230308B4208BF42F00102F7
:1014D00001F55C71834208BF42F0010200F55C70C7
:1014E0008B4208BF42F001023031834208BF42F014
:1014F000010230308B4208BF42F00102303183429A
:1015000008BF42F0010230308B4208BF42F00102B6
:101510003031834208BF42F001028B4208BF42F0E3
:1015200001021AB9734A934240F0698102220021F4
:1015300084F8352084F834101A6822F001021A6009
:1015400006E0FFF759FE431B052B00F210812368CC
:101550001A68D007F5D4D4E90220216902431F6834
:10156000D4E905600A433243634ED4E9075102438C
:101570003E402A43656A0A43042D604942EA060256
:101580005F4E00F00F8136683140B1F1005F80F0AE
:10159000C3801A60596921F0070129435961204627
:1015A000FFF736FEE26D3F2302F01F029340836097
:1015B00022684D4B5349544D8A4218BF9A424B48BA
:1015C00001F148010CBF01230023AA4208BF43F0E8
:1015D00001034835824208BF43F0010348308A4284
:1015E00008BF43F001034831AA4208BF43F001039A
:1015F00005F56275824208BF43F0010300F5627091
:101600008A4208BF43F0010301F56271AA4208BF94
:1016100043F001034835824208BF43F001034830DC
:101620008A4208BF43F001034831AA4208BF43F091
:1016300001034835824208BF43F0010348308A4223
:1016400008BF43F0010301F1C051AA4208BF43F0B3
:10165000010301F59F412D4D824208BF43F0010374
:101660002B488A4208BF43F001033C31AA4208BF1D
:1016700043F001033C35824208BF43F001033C3094
:101680008A4208BF43F001033C31AA4208BF43F03D
:101690000103824208BF43F001038A4208BF43F0BE
:1016A000010313B91B4B9A4218D12046FFF72CFEB9
:1016B000A368802B68D06368206EDDB2013BD4E95B
:1016C0001921072B0560516065D82046FFF788FE79
:1016D000E16E0020D4E91C3208605A60002001232A
:1016E000606584F83530F8BD1000024058000240B3
:1016F00070000240B80402403F8010FE0000FFFF6F
:101700000010005C28000240400002401C540258B7
:1017100030540258945402586168A1F129061F2ED2
:101720002CD94F39032901D842F480121A60042DB4
:10173000596921F0070141EA05017FF42FAFE66AFC
:10174000A26A1143002E3FF429AF00283CD1012AA0
:1017500050D032F002027FF421AFF2017FF51EAFCC
:10176000012340221846626584F83530F8BD2022F6
:1017700003230120626584F83530F8BD544921FA0D
:1017800006F6F107D2D5CFE70023A16ED4E91802FF
:101790006360036051600023C4E91B3363679DE706
:1017A0000120F8BD3768E66A3940276BB1F1005F68
:1017B00046EA070742EA0702AED21A60596921F0E9
:1017C000070141F00401BBE7B0F5005F04D0022A35
:1017D000C6D9032AC1D0E1E6032A3FF6DFAE01A055
:1017E00050F822F0611700085B1700086117000825
:1017F000F5170008B6F1C07F7FF4D0AEB0E7354AE8
:10180000354936488B4218BF934201F12801344DC7
:101810000CBF01220022834208BF42F001023C308B
:101820008B4208BF42F001023C31AB4208BF42F09C
:101830000102834208BF42F001028B4208BF42F01E
:10184000010212B9274A93423AD102220021264FBF
:1018500084F83520A26884F83410402A196807EA11
:1018600001072BD0802A0CBF4FF480410021226950
:101870002046E668D2086569DFF874C042EAD602FD
:10188000A66942EAD502E56942EAD602174E42EA63
:10189000D5021E44256A42EA1512ACFB06653A439E
:1018A0002D091143AD001960E565FFF7B1FCE26D4C
:1018B000012302F01F029340436079E61021D6E72E
:1018C000402203230120626584F83530F8BD00BF53
:1018D0003F00C0C3085402581C54025830540258E8
:1018E00058540258945402580F00FEFFF8ABFDA75D
:1018F000CDCCCCCC2DE9F0479F4A00259F4E82B03D
:10190000036882469E49846D934218BFB342019595
:1019100008BF01260D68276818BF002621684AD035
:101920003032DFF86CE29748734518BF93420EF1EE
:10193000480E0CBF01220022834208BF42F0010280
:101940003030734508BF42F001020EF1300E834281
:1019500008BF42F0010200F55C70734508BF42F019
:1019600001020EF55C7E834208BF42F00102303076
:10197000734508BF42F001020EF1300E834208BFEA
:1019800042F001023030734508BF42F001020EF10F
:10199000300E834208BF42F001023030734508BF69
:1019A00042F00102834208BF42F001021AB9764AAE
:1019B000934240F00B82DAF85C10082201F01F0C11
:1019C00002FA0CF2174240F08D8127FA0CF2D2078E
:1019D0000CD55A69100609D5012202FA0CF2A26050
:1019E000DAF8542042F00202CAF854204FF0040EF4
:1019F0000EFA0CF038425BD0002E4FD1634ADFF86C
:101A00009091DFF880814B4518BF934209F1480956
:101A10000CBF01220022434508BF42F0010208F139
:101A200030084B4508BF42F0010209F13009434537
:101A300008BF42F0010208F55C784B4508BF42F050
:101A4000010209F55C79434508BF42F0010208F143
:101A500030084B4508BF42F0010209F13009434507
:101A600008BF42F0010208F130084B4508BF42F0C0
:101A7000010209F13009434508BF42F0010208F1B3
:101A800030084B4508BF42F00102434508BF42F011
:101A900001021AB93C4A934240F02F821A68920719
:101AA00006D5A060DAF8542042F00402CAF85420A7
:101AB000102202FA0CFC1CEA070F6FD0002E46D150
:101AC000324A33482F4E834218BF934200F14800F8
:101AD0000CBF01220022B34208BF42F0010230369F
:101AE000834208BF42F001023030B34208BF42F0E7
:101AF000010206F55C76834208BF42F0010200F560
:101B00005C70B34208BF42F001023036834208BF26
:101B100042F001023030B34208BF42F001023036D9
:101B2000834208BF42F001023030B34208BF42F0A6
:101B300001023036834208BF42F00102B34208BFBF
:101B400042F001021AB9104A934240F0DE811A684D
:101B5000C2F3C00212B3C4F808C01A68520300F1FD
:101B60008B811A68D60503D41A6822F008021A601D
:101B7000DAF8403093B10DE0280002401000024036
:101B80002400002470000240B804024058000240C3
:101B90004000024050469847DAF85C1001F01F01FF
:101BA00020268E403E426AD0DAF80020A74BA84893
:101BB000A84F824218BF9A4200F130000CBF0123A7
:101BC0000023BA4208BF43F001033037824208BF06
:101BD00043F001033030BA4208BF43F0010330370D
:101BE000824208BF43F001033030BA4208BF43F0DD
:101BF000010307F55C77824208BF43F0010300F55B
:101C00005C70BA4208BF43F001033037824208BF1C
:101C100043F001033030BA4208BF43F001033037CC
:101C2000824208BF43F001033030BA4208BF43F09C
:101C300001033037824208BF43F00103BA4208BFB4
:101C400043F001031BB9844B9A4240F0738113683F
:101C5000C3F300139BB1A6609AF83530042B1368C8
:101C600000F0148113F4802F136800F02D811C0301
:101C700040F13881DAF83C300BB150469847DAF839
:101C80005430002B00F0DF80DAF85430D8071FD52D
:101C9000DAF8002004248AF83540136823F00103A1
:101CA00013606E4BA3FB0535AD0A02E01368D9073C
:101CB00004D5019B0133AB420193F7D900238AF885
:101CC00034301368DB074CBF032301238AF8353017
:101CD000DAF84C30002B00F0B680504602B0BDE878
:101CE000F0471847186840070AD5186820F0040024
:101CF0001860A260DAF8542042F00102CAF85420B9
:101D000027FA0CF2D2077FF571AE554A5148DFF839
:101D10006481834218BF934200F148000CBF012246
:101D20000022434508BF42F0010208F13008834217
:101D300008BF42F001023030434508BF42F00102C3
:101D400008F55C78834208BF42F0010200F55C7040
:101D5000434508BF42F0010208F13008834208BF42
:101D600042F001023030434508BF42F0010208F161
:101D70003008834208BF42F001023030434508BFBB
:101D800042F0010208F13008834208BF42F001022C
:101D90003030434508BF42F00102834208BF42F0A1
:101DA0000102002A7FF415AE002E7FF412AE042249
:101DB0001E6802FA0CF23A4240F09F80102202FAAA
:101DC0000CFC17EA0C0F3FF4E9AE79E6254A264EE3
:101DD000264DB34218BF934206F128060CBF0122DC
:101DE0000022AB4208BF42F001022835B34208BFCF
:101DF00042F001022836AB4208BF42F0010228350A
:101E0000B34208BF42F00102AB4208BF42F00102F8
:101E100012B9174A934216D1DAF85C5004261A68B0
:101E200005F01F05AE400E4273D0570771D5100460
:101E3000666040F19F80D10300F1A280DAF848305B
:101E4000002B7FF44AAF02B0BDE8F08710000240DB
:101E50002800024040000240B8040240B5814E1BF9
:101E600058000240085402581C540258305402587A
:101E700094540258700002401B681B037FF578AE33
:101E8000DAF84830002B7FF485AE87E623F016039E
:101E9000DAF840501360536923F0800353613DB377
:101EA000136823F0080313603F230025012203FA7F
:101EB00001F1DAF85030A1608AF834508AF8352000
:101EC000002B7FF40AAFBEE713F480737FF4D2AE29
:101ED0001168012421F0100111608AF834308AF869
:101EE0003540C7E6DAF84430002B7FF4C6AEC6E6CC
:101EF000DAF84830002BD3D1D6E710221E6802FA58
:101F00000CFC17EA0C0F3FF449AE1A68C2F38002CA
:101F100020E60226AE400E4210D097070ED566602E
:101F2000140433D5D0033DD4DAF84430002B7FF4C9
:101F3000D4AE88E71368C3F340038BE60826AE40AF
:101F40000E4280D011077FF57EAF1968012200266E
:101F500021F00E0102FA05F51960DAF84C306560DF
:101F6000CAF854208AF834608AF83520002B7FF4B0
:101F7000B4AE68E7920603D41A6822F004021A602D
:101F8000DAF84030002B7FF4A8AE5CE712F02002B4
:101F900008D11968012421F00A0119608AF8342057
:101FA0008AF83540DAF83C30002B7FF496AE4AE7E9
:101FB000F0B583680446CA4987B0E768C94DD0E9DF
:101FC00004261A430368C06932431E68AB4201EA23
:101FD000060142EA0002A66942EA01021A605A6852
:101FE00022F4405242EA07025A6000F0E1809D6804
:101FF000226ABD493243BD4E2940656AB34242EA76
:1020000001029A60DA6A22F00F0242EA0502DA62FD
:1020100023D0B74A934275D0B64A934200F0BF81AD
:10202000B54A934200F0EC81B44A934200F0A78194
:10203000B34A934200F0EE81B24A934200F03E82EE
:10204000B14A934200F0308201204FF00112002388
:10205000A266C4E91C3307B0F0BDAC4B5B6D03F066
:102060003803282BF0D8AA4AD35CB0F5004F54D0DF
:10207000202B00F28E81202BE6D801A252F823F00B
:10208000D9220008D322000849200008492000086E
:10209000C322000849200008492000084920000800
:1020A000B5220008492000084920000849200008FE
:1020B000492000084920000849200008492000085C
:1020C0009F220008492000084920000849200008F4
:1020D000492000084920000849200008492000083C
:1020E000492000084920000849200008492000082C
:1020F000492000084920000849200008492000081C
:1021000071220008814B5B6D03F00703052B9BD800
:10211000804AB0F5004FD35CAAD1202B00F26D812C
:10212000202B91D801A252F823F000BF9F24000871
:102130008F24000849200008492000089524000841
:102140004920000849200008492000087D24000893
:1021500049200008492000084920000849200008BB
:102160004920000849200008492000086924000887
:10217000492000084920000849200008492000089B
:10218000492000084920000849200008492000088B
:10219000492000084920000849200008492000087B
:1021A000492000084920000849200008BF230008F2
:1021B00098684D4A5549024032439A60DA6A606A2B
:1021C00022F00F020243DA628B6D03F00703052B46
:1021D0003FF63AAF504AD35C202B00F2EA80012B45
:1021E0007FF632AF023B1E2B3FF62EAF01A252F814
:1021F00023F000BF5D240008492000084D2400089A
:102200004920000849200008492000083D24000812
:1022100049200008492000084920000849200008FA
:102220004920000849200008492000082924000806
:1022300049200008492000084920000849200008DA
:1022400049200008492000084920000849200008CA
:1022500049200008492000084920000849200008BA
:1022600049200008492000084920000829230008C7
:102270002A482B4B4FF6EF71626833F81530B0FBEC
:10228000F3F303EB5203B3FBF2F39BB2A3F110029F
:102290008A423FF6D9AE22680020D360D5E61B4BB8
:1022A0001A68920640F1FE801B681E48C3F3C10302
:1022B000D840DEE703A802F065F8049838B900209A
:1022C000C3E6684601F0A0FF01980028F7D0656AD0
:1022D000CFE701F099F8F1E701F084F8EEE700BFED
:1022E000F369FFCF000C0058FFF4FF11001001400C
:1022F0000044004000480040004C004000500040B6
:102300000014014000780040007C00400044025866
:10231000E08B00080C8C0008148C000800093D00BC
:102320001C8C00080090D0036B486C4B626A656897
:1023300033F8122005EB4501B0FBF2F399423FF66A
:1023400083AEB3EB053F3FF67FAE00230021FDF7E0
:10235000CFFF2A464FEA550C00230F02060247EA38
:10236000106716EB0C0047F10001FDF7C1FF5C4A56
:10237000A0F54071034691423FF666AE8BE7594B9C
:102380005B6D03F00703052B3FF65EAE564AD35C48
:102390006BE6402B7FF458AE4FF4004069E7514B99
:1023A0005B6D03F00703052B3FF64EAE4F4AD35C3F
:1023B0005BE6402B7FF448AE4FF40040B5E746485B
:1023C000464B4FF6EF71626833F815505308B0FB77
:1023D000F5F003EB4000B0FBF2F082B2A2F1100383
:1023E0008B423FF631AE20F00F03C2F34202216868
:1023F00000209BB21343CB6027E6402BE0D023E6BE
:10240000384B5B6D03F00703052B3FF61DAE384AD2
:10241000D35C2AE6334B5B6D03F03803282B3FF681
:1024200013AE344AD35C20E62E4B1A6890064FD583
:102430001B683148C3F3C103D84076E703A801F015
:10244000A1FF049800283FF43AAF6EE7684601F018
:10245000DBFE019800283FF432AF66E701F0C2FED0
:1024600000283FF42CAF60E71E4B1A68910631D567
:102470001B682148C3F3C103D840A1E703A801F0BA
:1024800081FF049800283FF41AAF656A98E700F0CE
:10249000BBFFF7E7684601F0B7FE0198F2E700F0EE
:1024A000A1FFEFE71448E4E60E4B5B6D03F0070372
:1024B000052B3FF6C9AD114AD35CD6E5094B5B6DE0
:1024C00003F00703052B3FF6BFAD0D4AD35CCCE507
:1024D00009482AE7084873E700093D001C8C0008FA
:1024E000FFFC0F00004402580C8C00080C8C000804
:1024F0000C8C0008E08B00080090D0030C8C0008C6
:102500000C8C0008836ADA0710B406D50168C46A27
:102510004A6822F4003222434A609C0706D50168CB
:10252000046B4A6822F4803222434A60590706D578
:102530000168446B4A6822F4802222434A601A07E9
:1025400006D50168846B4A6822F4004222434A603F
:10255000DC0606D50168C46B8A6822F480522243E7
:102560008A60990606D50168046C8A6822F40052D4
:1025700022438A605A060AD50168446C4A68B4F559
:10258000801F22F4801242EA04024A600BD01B062C
:1025900006D50268C16C536823F400230B435360D3
:1025A0005DF8044B70474A68846C22F4C0022243F1
:1025B0004A60ECE72DE9F047DDF8208081460F46C0
:1025C00016469A46056802E0B8F1FF3F0AD1EC6969
:1025D00037EA04030CBF01240024B442F4D00020E5
:1025E000BDE8F087FEF708FEA0EB0A00B8FA88F213
:1025F00040454FEA521220D8B8F1000F1DD0D9F84B
:1026000000502B685907E2D5EB691B05DFD54FF465
:102610000061202303202962296821F4D0712960F8
:10262000A96821F00101A960C9F8843089F88020E7
:10263000C9F88830C9F88C30D2E7D9F800302021A9
:10264000002403201A6822F4D0721A609A6822F0DB
:1026500001029A60C9F8841089F88040C9F888108E
:10266000BEE700BF70B50026044682B0C0F88C609B
:10267000FEF7C2FD236805461A6812070ED41B68D0
:102680005B071AD4002320221846C4F8842084F85B
:102690008030C4F88820E36602B070BD6FF07E40E1
:1026A00032462B464FF4001100902046FFF782FF80
:1026B00078B923681B685B07E4D56FF07E402B4632
:1026C00000224FF4800100902046FFF773FF00289E
:1026D000D8D0032002B070BD80B3D0F8843010B5DC
:1026E000044633B3226824232046C4F88430136898
:1026F00023F001031360FFF75BFC012817D0A36AE6
:102700008BB9236820465A6822F490425A609A682E
:1027100022F02A029A601A6842F00102BDE81040D5
:102720001A60FFF79FBF2046FFF7ECFEE9E70120A4
:1027300010BD80F8803004F043F9D3E701207047E2
:1027400000284DD0F8B590F84130044603F0FF0260
:10275000002B40D02421E068D4E9003284F84110F5
:102760000128196822F0706221F0010119601A61D4
:102770009A6822F400429A60A26828D042F4044287
:1027800002289A6002D14FF400625A605A68002110
:1027900014482027A6691043D4E9042558602A4329
:1027A000D868E56942EA0622266A20F400403543EB
:1027B000D8600846DA601D601A6842F001021A60AB
:1027C000616484F84170216384F84210F8BD42F4DA
:1027D00000429A60DAE780F8402004F02FF8B9E769
:1027E00001207047008000021E2310B401E0013B6D
:1027F00014D321FA03F4E407F9D5182A0FD8DFE837
:1028000002F0140E0E0E0E0E0E0E1F0E0E0E0E0EFB
:102810000E0E220E0E0E0E0E0E0E12002AB101200A
:102820005DF8044B7047062BF9D8046800206161FD
:10283000A36823F018031A43A2605DF8044B7047A5
:102840000F2BF2D9EBE7072BEFD9E8E71C4AD36847
:1028500003F00703062BD36870B5044605D003F0D8
:102860003F03181A18BF012070BD23F03F0316461E
:102870000343D360FEF7C0FC054605E0FEF7BCFC51
:10288000431BB3F57A7F19D873689A04F6D5A4F17F
:102890001D03012B05D9A4F12D00012801D9002029
:1028A00070BDFEF7A9FC064D0446EB68DB03F6D4C9
:1028B000FEF7A2FC001BB0F57A7FF6D9012070BDAF
:1028C0000048025807490002074BCA6800F4E0605C
:1028D00010B44FF6FF0422405DF8044B104303434D
:1028E000CB60704700ED00E00000FA05194BDB6893
:1028F000C3F3022330B4C3F107051C1D042D28BF08
:102900000425062C19D9033B4FF0FF349C4022EAE2
:1029100004024FF0FF34002804FA05F421EA040110
:1029200001FA03F141EA02010ADB09010A4BC9B2CB
:10293000034483F8001330BC704700221346E8E7D5
:1029400000F00F000901054BC9B20344197630BCF1
:10295000704700BF00ED00E000E100E0FCEC00E0AB
:10296000002807DB012300F01F01034A40098B40C8
:1029700042F82030704700BF00E100E0002800F07E
:10298000F781F8B503680446D9072ED5B4490A691A
:10299000896A02F03802102A00F02C81182A00F00F
:1029A00024816368B3F5803F00F06781002B00F05D
:1029B0007F81B3F5A02FAA4B1A6800F0788222F429
:1029C00080321A601A6822F480221A60FEF714FC22
:1029D000A34E054605E0FEF70FFC401B642800F2FD
:1029E000658133689F03F6D52368990721D59C4AF2
:1029F0001369926A13F0380340F0A880984B1B6863
:102A00005B0703D5E368002B00F0ED80FEF7FAFBCF
:102A100041F20303984200F289812269402A00F0C2
:102A20004E828F494B6823F47C3343EA02334B6078
:102A30002368D90656D41D0717D56369002B00F00B
:102A4000B480874B5A6F1E4642F001025A67FEF768
:102A5000D3FB054605E0FEF7CFFB401B022800F242
:102A60002581736F9807F6D523689A0617D5A36951
:102A7000002B00F034817A4B1A681E4642F48052D3
:102A80001A60FEF7B9FB054605E0FEF7B5FB401BF3
:102A9000022800F20B8133689F04F6D5236859079A
:102AA00000F1B280606AD8B16D4B1A6902F0380249
:102AB000182A00F0CE811A6802281D4622F0807282
:102AC0001A6000F06181FEF797FB044605E0FEF70F
:102AD00093FB001B022800F2E9802B689B01F6D4CF
:102AE0000020F8BD5E4A1369926A03F03803082B90
:102AF00072D0182B6CD0E369002B00F00381584B87
:102B00001A681E4642F080021A60FEF775FB054601
:102B100005E0FEF771FB401B022800F2C780336816
:102B2000DB05F6D5FEF76EFB41F20303984200F297
:102B3000E981226A7368202A23F0F8430CBF43F02E
:102B4000804343EA82637360236874E7182B00F0C4
:102B50000B81E268002A00F0F38041490B680E46C1
:102B600023F0190313430B60FEF746FB054605E00F
:102B7000FEF742FB401B022800F2988033685F0793
:102B8000F6D5FEF73FFB41F20303984200F2C38102
:102B900022697368402A23F47C330CBF43F400336A
:102BA00043EA02337360236843E72D4B5A6F1E4696
:102BB00022F001025A67FEF71FFB054604E0FEF70C
:102BC0001BFB401B022871D8736F9907F7D44BE7A2
:102BD00002F00302012A8ED1214B1B68DA0552D57F
:102BE000E369802B4FD00120F8BD01F003010229D9
:102BF0007FF4D7AE1A4A126892037FF5F6AE626888
:102C0000002A7FF4F2AEEEE7164B1A681E4642F435
:102C100080721A60FEF7F0FA054604E0FEF7ECFA5F
:102C2000401B642842D83368DA05F7D5A368012B26
:102C300000F07A81002B00F04B81052B084B1A6FB6
:102C400000F0878122F001021A671A6F22F0040255
:102C50001A67FEF7D1FA024E41F28837054608E0BE
:102C60000044025800480258FEF7C6FA401BB8421A
:102C70001CD8336F9B07F7D514E7AE4A136843F4AB
:102C800080331360A2E6FEF7BDFA41F203039842D7
:102C900070D8226A202A00F05381A6494B6823F09D
:102CA000F84343EA82634B602368C4E60320F8BD1F
:102CB000A04B1A681E4622F480321A601A6822F469
:102CC00080221A60FEF798FA054604E0FEF794FAAF
:102CD000401B6428EAD833689803F7D484E6954B00
:102CE0001A681E4622F480521A60FEF785FA0546DD
:102CF00004E0FEF781FA401B0228D7D83368980415
:102D0000F7D4CBE68B4B1A681E4622F080021A607D
:102D1000FEF772FA054604E0FEF76EFA401B022841
:102D2000C4D83368DF05F7D4236884E6814A216973
:102D3000536823F0FE4343EA01635360236878E657
:102D40007C4B1A681E4622F001021A60FEF754FA04
:102D5000054604E0FEF750FA401B0228A6D8336867
:102D60005807F7D4236864E692077FF4F2AE45E68D
:102D7000012070476F4A216AD36823F07C5343EAED
:102D80000163D360236856E6FEF736FA064604E090
:102D9000FEF732FA801B022888D82B689901F7D4F5
:102DA000AA6A654BA06A1340E26A64490343614E14
:102DB00043EA0213AB62276BD4E90D32013F501E88
:102DC000013BE26BC7F308075B020004013A9BB2C8
:102DD00000F4FE001206034302F0FE423B4313439D
:102DE0002B63EB6A23F00103EB626A6BA36C114067
:102DF00041EAC3016963EB6A226C23F00C031343BD
:102E0000EB62EB6A626C23F002031343EB62EB6A42
:102E100043F48033EB62EB6A43F40033EB62EB6A1A
:102E200043F48023EB62EB6A43F00103EB622B680F
:102E300043F080732B60FEF7DFF9044605E0FEF7F0
:102E4000DBF9001B02283FF631AF33689A01F6D553
:102E500046E601289A6A1D6B3FF443AE02F0030375
:102E6000A16A8B427FF4BFAEC2F30512E36A9A42B5
:102E70007FF4B9AE236BC5F30802013B9A427FF49D
:102E8000B2AE636BC5F34622013B9A427FF4ABAE10
:102E9000A36BC5F30642013B9A427FF4A4AEE06BFC
:102EA000C5F306650138281A18BF0120F8BD42F4A1
:102EB00080221A601A6842F480321A6086E51D4A40
:102EC000536823F47C3343F4003353602368B0E544
:102ED000184B41F288371A6F1E4622F001021A671A
:102EE0001A6F22F004021A67FEF786F9054605E01C
:102EF000FEF782F9401BB8423FF6D8AE336F980711
:102F0000F6D4CFE5F368226A23F07C5343EA0263E8
:102F1000F36023688FE57368226923F0FE4343EA78
:102F200002637360236884E5024A136F43F0010370
:102F300013678EE6004402580CFCFFFF0700FFFFFA
:102F4000084A536823F0F84343F0804353602368F2
:102F500071E542F004021A671A6F42F001021A6723
:102F600077E600BF00440258F0B50D4689B014461C
:102F7000234E00BBD6F8E0304FF48072022703A93D
:102F800043F00103C6F8E030D6F8E03003920322A4
:102F900003F001030590079001931A480692019BE4
:102FA0000497FDF7CFFF326922F0FE722A432243D5
:102FB000326109B0F0BDD6F8E03002224FF4007063
:102FC000032143F00403C6F8E030D6F8E030049261
:102FD000002203F004030390069103A902930A4818
:102FE000029B05920792FDF7ADFF336923F07E4304
:102FF00043EA050141EAC411316109B0F0BD00BFE7
:10300000004402580000025800080258474A136959
:1030100003F03803102B04D0182B0DD01BB14448FB
:10302000704744487047136899064AD51368424868
:10303000C3F3C103D8407047936A30B4946AD16A2D
:1030400014F47C7FC4F30510556B38D0C5F3CC0560
:1030500001F0010103F0030301FB05F1012B07EE71
:10306000901AB8EEE77A02D0022B2CD093B307EE79
:10307000900A9FED325AF8EEE77A136BC5EE276A95
:10308000DFED2F5AC3F3080307EE903AB7EE006A5C
:10309000F8EEE77AE7EE257A77EE867A66EEA76AAB
:1030A000224B1B6BC3F34623013307EE903AB8EE75
:1030B000E77AC6EE877AFCEEE77A17EE900A30BC24
:1030C00070471D48704707EE900A9FED1E5AF8EEB4
:1030D000E77AD2E713689B0620D5136807EE900ABB
:1030E0001549B7EE005AC3F3C100F8EEE77A136B47
:1030F000C140DFED134AC3F3080306EE101A06EED3
:10310000903AB8EEC66AF8EEE66AC6EE275AE7EEDF
:10311000246A76EE856A66EEA56AC1E707EE900A34
:103120009FED095AF8EEE77AA7E700BF004402587E
:1031300000093D0040787D010090D0030024744ACE
:103140000000003920BCBE4B0024744C002800F065
:103150000E818D4A136803F00F038B422DE9F04175
:1031600004460D460CD2136823F00F030B43136083
:10317000136803F00F038B4202D00120BDE8F081F9
:1031800023685F070BD5814920698A6902F07002C4
:10319000904204D98A6922F0700202438A611E07B4
:1031A0000BD57A496069CA6902F07002904204D96D
:1031B000CA6922F070020243CA61D8060BD573496E
:1031C000A069CA6902F4E062904204D9CA6922F493
:1031D000E0620243CA6199060BD56C49E0690A6A4C
:1031E00002F07002904204D90A6A22F0700202438F
:1031F0000A629A0740F1AD806448E168826902F092
:103200000F02914204D9826922F00F020A438261BF
:10321000D80731D55D4AA168936923F470630B43E5
:10322000936161681368022900F0A380032900F00C
:103230009A80012900F0A38058079ED5534A41F295
:1032400088381369174623F007030B431361FDF712
:10325000D3FF064605E0FDF7CFFF801B404500F297
:103260008C803B69626803F03803B3EBC20FF2D184
:103270002368990706D5E1684448826902F00F0285
:103280008A426AD840490A6802F00F02AA420AD963
:103290000A6822F00F022A430A600A6802F00F024D
:1032A000AA427FF46AAF5A070BD5384920698A6968
:1032B00002F07002904204D28A6922F07002024346
:1032C0008A611F070BD531496069CA6902F0700233
:1032D000904204D2CA6922F070020243CA61DE063B
:1032E0000BD52A49A069CA6902F4E062904204D26F
:1032F000CA6922F4E0620243CA619D060BD5234AE3
:10330000E169136A03F07003994204D2136A23F04F
:1033100070030B431362FFF779FE1C4B02461C48F7
:1033200099699B69C1F303211A4D03F00F031A4CED
:10333000415CC35C01F01F01286803F01F03174DB7
:10334000CA4022FA03F32A602360BDE8F04103F08B
:1033500085BBDA073FF55EAF94E7826922F00F0282
:10336000114381618EE79F013FF568AF05E70120BA
:1033700070479B033FF562AFFFE60320FEE6DE05E4
:103380003FF55CAFF9E600BF002000520044025850
:103390005C8C000804000024280000242400002481
:1033A00038B5FFF733FE0B4B0B499A699B69C2F3A3
:1033B00003220A4C03F00F03094D8A5CCB5C02F038
:1033C0001F0203F01F0320FA02F222FA03F02A6020
:1033D000206038BD004402585C8C0008280000249E
:1033E0002400002408B5FFF7DBFF054B054ADB6925
:1033F000C3F30213D35C03F01F03D84008BD00BF22
:10340000004402585C8C000808B5FFF7C9FF054B63
:10341000054ADB69C3F30223D35C03F01F03D840E2
:1034200008BD00BF004402585C8C0008134B3F22CB
:1034300002601A6902F0070242609A6902F470623F
:1034400082609A6902F00F02C2609A6902F070020B
:103450000261DA6902F070024261DA6902F4E06244
:1034600082611B6A10B403F07003054CC3612368CA
:103470005DF8044B03F00F030B60704700440258E3
:10348000002000523B4AF8B5936A03F00303032B74
:1034900069D0136806460F46144623F08063136014
:1034A000FDF7AAFE054604E0FDF7A6FE431B022B2E
:1034B00057D823681A01F7D4A36A326823F47C33FF
:1034C0002D4943EA0233A3627568D6E90232013D11
:1034D000501E013B3269C5F308055B020004013A46
:1034E0009BB200F4FE001206034302F0FE422B439F
:1034F0001343A363E36A726923F0C0031343E362D7
:10350000E36AB26923F020031343E362E36A23F022
:103510001003E362E26BF369114041EAC301E16326
:10352000E36A43F01003E362E36AF7B1012F0CBFD3
:1035300043F4801343F40013E3620E4B1A681D46F4
:1035400042F080621A60FDF757FE044604E0FDF782
:1035500053FE001B022804D82B681B01F7D500205E
:10356000F8BD0320F8BD0120F8BD43F40023E36259
:10357000E3E700BF004402580700FFFF3B4AF8B5ED
:10358000936A03F00303032B69D0136806460F46C2
:10359000144623F080531360FDF72EFE054604E029
:1035A000FDF72AFE431B022B57D823689A00F7D455
:1035B000A36A326823F07C732D4943EA0253A36265
:1035C0007568D6E90232013D501E013B3269C5F3F0
:1035D00008055B020004013A9BB200F4FE001206EB
:1035E000034302F0FE422B4313432364E36A7269F0
:1035F00023F440631343E362E36AB26923F4007384
:103600001343E362E36A23F48073E362626CF36959
:10361000114041EAC3016164E36A43F48073E362E9
:10362000E36AF7B1012F0CBF43F4000343F080734A
:10363000E3620E4B1A681D4642F080521A60FDF795
:10364000DBFD044604E0FDF7D7FD001B022804D88B
:103650002B689B00F7D50020F8BD0320F8BD0120A2
:10366000F8BD43F48003E362E3E700BF004402587F
:103670000700FFFF2DE9F8430368044613F00066D6
:103680001CD0826EB2F5001F00F0C78423D8002A38
:1036900000F02C84B2F5801F20D102210430FFF706
:1036A000F1FE0646002E40F0C084A26E2368B048AA
:1036B0000026016D21F440110A430265DA0511D597
:1036C000A26D042A00F28085DFE812F0BA04C1047A
:1036D000B2043B033B03B2F5401FE8D0DA054FF0DC
:1036E0000106EDD435469F051BD5E26D802A00F01A
:1036F000B78400F22781002A00F0E683402A40F0D8
:1037000028810021201DFFF7BDFE23680546002DFE
:1037100040F0CC839649E06D0A6D22F4E0720243DA
:103720000A6558051FD5D4F8A820B2F5800F00F01F
:10373000628400F21181002A00F0C083B2F5001FFC
:1037400040F012810021201DFFF79CFE23680546F2
:10375000002D40F0B1838649D4F8A8008A6D22F488
:10376000600202438A6519051FD5D4F8AC20B2F176
:10377000007F00F0378400F2FD80002A00F0AA8369
:10378000B2F1807F40F0FE800021201DFFF77AFE1D
:1037900023680546002D40F087837549D4F8AC00B6
:1037A0008A6D22F0E06202438A659A0118D5A26C04
:1037B000202A00F00D8400F2E8803AB1102A40F08F
:1037C000E7806B49CA6A42F40032CA62002D40F0B9
:1037D000BA836749A06CCA6C22F030020243CA6403
:1037E000DF041DD5226EB2F5005F00F00D8400F2FB
:1037F000D280002A00F07483B2F5805F40F0D3805D
:103800000021201DFFF73EFE23680546002D40F0F5
:103810004F835749206E0A6D22F4E04202430A6545
:1038200098041BD5626EB2F5003F00F0BD8300F234
:10383000BD804AB1B2F5803F40F0C2800121201D19
:10384000FFF720FE23680546002D40F07E8348499F
:10385000606E0A6D22F4E02202430A6559041DD508
:10386000D4F8B020B2F1005F00F0A88300F2AB8082
:103870004AB1B2F1805F40F0B0800121201DFFF716
:1038800001FE23680546002D40F063833849D4F8D3
:10389000B0008A6D22F0E04202438A655A0109D5E0
:1038A000E26C002A00F06482B2F5807F00F05A8258
:1038B000012635461F040DD5226FB2F1805F00F05E
:1038C0002084B2F1005F00F0CE82002A00F0D182A5
:1038D00001263546D80100F1CF81590200F1EF8170
:1038E000DF0740F18880E26F282A00F2CF81DFE80D
:1038F00012F07E00CD01CD01CD01CD01CD01CD0174
:10390000CD01D403CD01CD01CD01CD01CD01CD013E
:10391000CD017700CD01CD01CD01CD01CD01CD018E
:10392000CD017E00CD01CD01CD01CD01CD01CD0177
:10393000CD017E00CD01CD01CD01CD01CD01CD0167
:10394000CD017E00C02A3FF4E2AEB2F5807F3FF4A5
:10395000DEAE01263546E4E6B2F5C00F3FF4F8AE20
:10396000B2F5000F3FF4F4AE01263546FBE600BF8A
:1039700000440258B2F1407F3FF40CAFB2F1806FC7
:103980003FF408AF012635460FE7302A3FF41EAF5B
:103990000126354624E7B2F5405F3FF437AFB2F574
:1039A000804F3FF433AF0126354639E722F48031AA
:1039B000B1F5802F3FF448AFB2F5403F3FF444AF3C
:1039C000012635464AE722F08051B1F1804F3FF49D
:1039D0005AAFB2F1405F3FF456AF012635465DE77E
:1039E000012104F12400FFF7C9FD23680546002DDD
:1039F00000F0C0822E46980716D5A26F052A00F265
:103A0000E683DFE812F00D00360306000D000D001E
:103A10000D00012104F12400FFF7B0FD23680546E5
:103A2000002D00F079822E46590717D5D4F894203E
:103A3000052A00F2C683DFE812F00D002603060017
:103A40000D000D000D00012104F12400FFF796FD8B
:103A500023680546002D00F06A822E469A061DD581
:103A6000D4F89020B2F1005F00F0408300F2AF8103
:103A70004AB1B2F1805F40F0B4810021201DFFF710
:103A800001FD23680546002D40F03C82B349D4F87F
:103A900090004A6D22F0E04202434A655F061DD560
:103AA000D4F89C20B2F5006F00F0348300F27F81DF
:103AB0004AB1B2F5806F40F084810021201DFFF7EC
:103AC000E1FC23680546002D40F02182A349D4F88B
:103AD0009C008A6D22F4E05202438A6518061DD5C7
:103AE000D4F8A020B2F5804F00F01F8300F24F8180
:103AF0004AB1B2F5005F40F054810021201DFFF76C
:103B0000C1FC23680546002D40F0F7819349D4F8A5
:103B1000A0008A6D22F4604202438A6519070BD522
:103B2000D4F88410B1F5805F00F01E838B48426D9D
:103B300022F440520A434265DA060BD5D4F89810B5
:103B4000B1F5807F00F005838448826D22F44072D5
:103B50000A4382651F030ED5D4F8A410B1F5803F47
:103B600000F06B81B1F5003F00F06E81002900F09C
:103B7000E7820126354658030FD5D4F88820B2F5E0
:103B8000001F00F04481B2F5401F00F04781B2F5FC
:103B9000801F00F0A28201263546D90317D5226D79
:103BA000002A00F08882B2F5803F40F07A8102213D
:103BB000201DFFF767FC05462368002D40F0E581D6
:103BC0006649206DCA6C22F480320243CA649A00AE
:103BD00000F15C819F033FD4301E18BF0120DE023C
:103BE00006D55E49656F0A6D22F000422A430A65D8
:103BF000DD0007D55949D4F8B8500A6922F480424B
:103C00002A430A61990206D55449E56E0A6D22F0ED
:103C100080722A430A655A0009D5504A116921F475
:103C2000004111611169D4F8BC5029431161002B86
:103C300006DA4A49656DCA6C22F040522A43CA64CA
:103C40001B0207D5454AD4F88C10536D23F440036A
:103C50000B435365BDE8F883D4F88020B2F5807F2C
:103C600000F0328240F2C38022F48071B1F5007F0F
:103C700000F0C0800120B2E7626C032A00F2AA8241
:103C8000DFE812F010008A010A00100001269807F0
:103C900035467FF5C9AEB0E60221201DFFF7F2FBE5
:103CA00023680546002D40F052812C49606CCA6C97
:103CB00022F003020243CA6459027FF511AE284B79
:103CC0001A68984642F480721A60FDF795FA074622
:103CD00005E0FDF791FAC01B642800F2E881D8F8EE
:103CE0000030DA05F5D5002D40F067821B4AD4F884
:103CF000B430116F594011F4407F0BD0116F106F29
:103D000021F4407140F480301067106F20F480304F
:103D100010671167B3F5807F00F0318203F44072C1
:103D2000B2F5407F00F03F820C490A6922F47C52D0
:103D30000A610A4AC3F30B03116F0B43136723682D
:103D4000CEE53546002D40F0B5800449A06D0A6DE2
:103D500022F0070202430A65C5E400BF004402588E
:103D6000004802580121201DFFF78CFB23680546FF
:103D7000002D40F00C81B9491F04E06CCA6C22F49C
:103D8000807242EA0002CA647FF5A4AD94E522F491
:103D90000051B1F5004F3FF4B6AEB2F5C04F3FF45D
:103DA000B2AE0126190735467FF5C6AEB8E622F455
:103DB0008061B1F5805F3FF486AEB2F5406F3FF4AD
:103DC00082AE0126180635467FF5A8AE88E622F0B9
:103DD0008051B1F1804F3FF456AEB2F1405F3FF4F5
:103DE00052AE01265F0635467FF578AE58E6002ACA
:103DF0007FF440AF002D7FF43DAF984D301E696DCC
:103E000018BF012021F440710A436A65E7E60121E9
:103E100004F12400FFF7B2FB23680546002D40F0B3
:103E2000A4808E49D4F888004A6D22F440120243DF
:103E30004A65D9037FF5CBAEB1E6022104F1240037
:103E4000FFF79CFB23680546002D40F089808349DD
:103E5000D4F8A4008A6D22F44032024358038A65E4
:103E60007FF59BAE89E60121201DFFF70BFB236840
:103E70000546002D6FD17949206F0A6D22F040521E
:103E80000243D8010A657FF528ADF5E6022104F169
:103E90002400FFF773FB236800283FF49BAE012644
:103EA00098E60126354692E62E467EE42E4638E414
:103EB0002E46B5E42E4616E42E4654E46749CA6AF7
:103EC00042F40032CA6243E46449CA6A42F40032EE
:103ED000CA621CE46149CA6A42F40032CA6259E407
:103EE0005E49CA6A42F40032CA628FE45B48C16A22
:103EF00041F40031C162FFF7DABB19072E467FF5A6
:103F00001BAE0DE65F062E467FF5E8ADC8E5180648
:103F10002E467FF503AEE3E55049A06F4A6D22F0CF
:103F2000070202434A6559077FF598AD7EE54B4984
:103F3000D4F894008A6D22F0070202438A659A063B
:103F40007FF5ACAD8CE52E464AE42E4686E42E463F
:103F5000C3E42E46A2E4D8012E467FF5BEAC8BE624
:103F600058032E467FF519AE07E6D9032E467FF596
:103F70002EAE14E63949E06F4A6D22F03802024352
:103F800098074A657FF550AD37E52E461FE61F04BA
:103F90002E467FF59FAC8FE43049CA6A42F4003266
:103FA000CA62002DD3D180E6012104F12400FFF77D
:103FB000E5FA05462368002DC7D148E4012104F144
:103FC0002400FFF7DBFA05462368002DC1D15DE42C
:103FD0000221201DFFF756FA05462368002DB2D1B5
:103FE000FFF7F7BB002104F12400FFF7C7FA2368AD
:103FF0000546FFF7CFBB002104F12400FFF7BEFA0E
:1040000023680546FFF7A4BB002104F12400FFF755
:10401000B5FA23680546FFF7F9BB02212430FFF704
:10402000ADFA0646002E3FF440AB2368FFF746BBCF
:10403000002104F12400FFF7A1FA2368054681E678
:1040400006493546CA6A42F40032CA627AE600215D
:10405000201DFFF717FA2368054673E6004402584F
:10406000002104F12400FFF789FA23680546FFF7D1
:104070004EBB0121201DFFF705FA05462368002DE0
:104080007FF4D1AC48E70121201DFFF7FBF905467D
:104090002368002D7FF4E1AC49E70121201DFFF7E3
:1040A000F1F905462368002D7FF4A4AC62E70326EE
:1040B0002368354614E44949CA6A42F40032CA62A8
:1040C000002D7FF462AF7BE54448C16A41F40031C2
:1040D000C162002D7FF4CEAD8FE64049CA6A42F43A
:1040E0000032CA62002D7FF440AF9AE6022104F14B
:1040F0002400FFF743FA05462368002D7FF402AF42
:10410000C4E43649CA6A42F40032CA62002D7FF420
:1041100022AFB0E6022104F12400FFF72FFA054692
:104120002368002D7FF4F3AED0E4022104F12400D3
:10413000FFF724FA05462368002D7FF4DEAEE5E4A0
:10414000201DFFF79FF905462368002D7FF408AF77
:104150007DE6022104F12400FFF710FAD4F898104C
:1041600000B101262368EFE4022104F12400FFF7E7
:1041700005FAD4F8841000B101262368D6E4FDF7CF
:104180003BF8DFF8588041F28839074604E0FDF734
:1041900033F8C01B48458AD8D8F870309B07F6D54D
:1041A000D4F8B430BAE50D480D4A016902EA131299
:1041B00021F47C510A430261BBE523682E46FFF7D8
:1041C0008FBB0126354649E40126FFF78BBA01264D
:1041D000354629E401263546FFF77FBB00440258E7
:1041E000CFFFFF0008B5FFF7DBF8054B054A1B6A58
:1041F000C3F30213D35C03F01F03D84008BD00BF14
:10420000004402585C8C0008584B70B4996A9D6A4F
:10421000DC6A15F47C3FC5F30532DE6B5CD0C6F377
:10422000CC06C4F3001401F0030104FB06F40129D9
:1042300007EE904AB8EEE77A03D0022975D000293C
:104240004FD007EE902ADFED4A6AF8EEE77A9B6BD3
:1042500086EEA76A9FED475AC3F3080306EE903A2D
:10426000F7EE005AF8EEE66AE7EE056A76EEA56A22
:1042700066EE266A3D4AB7EE006A936BC3F34623A7
:1042800007EE103AB8EEC77A70BC37EE067AC6EE83
:10429000877AFCEEE77AC0ED007A936BC3F30643AE
:1042A00007EE103AB8EEC77A37EE067AC6EE877A8E
:1042B000FCEEE77AC0ED017A936BC3F3066307EE79
:1042C000903AF8EEE77A77EE867A86EEA77ABCEE39
:1042D000C77A80ED027A704770BCC0E90022826024
:1042E00070471968890627D5196807EE902A224A6F
:1042F000B7EE005AC1F3C101F8EEE77A9B6BCA40F2
:10430000DFED1C4AC3F3080306EE102A06EE903ACE
:10431000B8EEC66AF8EEE66AC6EE275AE7EE246AF9
:1043200076EE856A66EEA56AA4E707EE902ADFEDD1
:10433000136AF8EEE77A8AE707EE902A9FED105AA3
:104340009B6BB7EE006AF8EEE77ADFED0A5AC3F32B
:104350000803C5EE276A07EE903AF8EEE77AE7EE33
:10436000257A77EE867A66EEA76A83E700440258DC
:104370000024744A000000390090D00320BCBE4BDA
:104380000024744C584B70B4996A9D6ADC6A15F02D
:104390007C7FC5F305525E6C5CD0C6F3CC06C4F3DB
:1043A000002401F0030104FB06F4012907EE904A02
:1043B000B8EEE77A03D0022975D000294FD007EE76
:1043C000902ADFED4A6AF8EEE77A1B6C86EEA76A60
:1043D0009FED475AC3F3080306EE903AF7EE005AF2
:1043E000F8EEE66AE7EE056A76EEA56A66EE266AFC
:1043F0003D4AB7EE006A136CC3F3462307EE103A4A
:10440000B8EEC77A70BC37EE067AC6EE877AFCEE55
:10441000E77AC0ED007A136CC3F3064307EE103A57
:10442000B8EEC77A37EE067AC6EE877AFCEEE77A00
:10443000C0ED017A136CC3F3066307EE903AF8EE11
:10444000E77A77EE867A86EEA77ABCEEC77A80EDB9
:10445000027A704770BCC0E9002282607047196818
:10446000890627D5196807EE902A224AB7EE005A26
:10447000C1F3C101F8EEE77A1B6CCA40DFED1C4ABC
:10448000C3F3080306EE102A06EE903AB8EEC66AA9
:10449000F8EEE66AC6EE275AE7EE246A76EE856AFB
:1044A00066EEA56AA4E707EE902ADFED136AF8EE40
:1044B000E77A8AE707EE902A9FED105A1B6CB7EE59
:1044C000006AF8EEE77ADFED0A5AC3F30803C5EE97
:1044D000276A07EE903AF8EEE77AE7EE257A77EE6C
:1044E000867A66EEA76A83E7004402580024744A7D
:1044F000000000390090D00320BCBE4B0024744C57
:10450000044A2030044B52F82000C01A18BF012082
:10451000704700BF0064025800030080024B41F462
:10452000407143F82010704700640258704700BF84
:1045300090F83D30012B3CD10268234B2349B2F166
:10454000804F18BF9A4230B40CBF01230023204C87
:104550000225A24208BF43F0010304F5006480F87D
:104560003D508A4208BF43F001031A48D168A24275
:1045700008BF43F0010341F00101824208BF43F04C
:104580000103D16033B9A0F56C40101AB0FA80F085
:10459000400998B19168104B0B40062B0BD0B3F536
:1045A000803F08D01368002043F00103136030BC43
:1045B000704701207047002030BC7047136843F0FB
:1045C00001031360F3E700BF000001400008004052
:1045D000000400400004014007000100704700BFD4
:1045E000704700BF704700BF704700BF03681A697B
:1045F000910710B5044602D5DA68920768D41A69A3
:10460000520702D5DA6850074FD41A69110702D54C
:10461000DA68120737D41A69D00602D5DA68D106EB
:104620001ED41A69D20702D5DA68D00769D41A698C
:10463000110602D5DA6812066BD41A69D00502D5C4
:10464000DA6811066DD41A69520602D5DA68500686
:104650006FD41A69910602D5DA68920649D410BD62
:104660006FF010010822204619612277DB6913F4EC
:10467000407F6FD1FFF7B2FF2046FFF7B3FF002264
:1046800023682277CDE76FF00801042220461961E4
:104690002277DB699B075AD1FFF7A0FF2046FFF77F
:1046A000A1FF002223682277B5E76FF00401022200
:1046B0002046196122779B6913F4407F44D1FFF7AC
:1046C0008DFF2046FFF78EFF0022236822779CE7AC
:1046D0006FF002010122196102779B69990730D1BD
:1046E000FFF77CFF2046FFF77DFF0022236822773B
:1046F00085E76FF0200220461A61BDE8104000F007
:1047000077B96FF0010220461A6102F0DBFC2368E2
:104710008DE76FF0800220461A6100F06BF9236884
:104720008BE76FF4807220461A6100F065F9236808
:1047300089E76FF0400220461A61FFF755FF2368B2
:1047400087E7FFF74DFFD0E7FFF74AFFBCE7FFF72A
:1047500047FFA6E7FFF744FF91E700BF3B4AB0F1F0
:10476000804F0368A0EB0202B2FA82F2F0B44FEA83
:10477000521223D012BB364CA0421FD004F58064E5
:10478000A0421BD004F58064A0423FD004F57844D9
:10479000A0423BD02F4C304A904218BFA04246D096
:1047A00002F58062904242D04A6923F080038C680F
:1047B00013430A680360C462826223E0274C23F03B
:1047C00070034D68041B2B43B4FA84F46409CE686B
:1047D00023F440734D6933438F680E6823F08003E0
:1047E0002B430360C762866252B94CB9194A1A4B0F
:1047F000984218BF904203D003F58063984201D1DC
:104800000B6903630123F0BC43617047134C23F031
:104810007003134D041B4E68A842B4FA84F443EAB3
:1048200006034FEA5414D2D0002CD0D1B2E7CA68A4
:1048300023F440734D6913438C680A6823F08003A6
:104840002B430360C4628262D0E700BF00000140D6
:1048500000040040004001400044014000040140C9
:10486000000C004070B310B590F83D30044603F0E2
:10487000FF0213B30223214684F83D3051F8040BA4
:10488000FFF76CFF0123002084F8483084F83E30A5
:1048900084F83F3084F8403084F8413084F8423066
:1048A00084F8433084F8443084F8453084F8463046
:1048B00084F8473084F83D3010BD80F83C20FFF785
:1048C00035FED7E70120704703680C4A996830B479
:1048D0009C68C1F342610A4D640F535C695C125DD0
:1048E0001B012C5D1201B3FBF1F3B2FBF4F2A0F853
:1048F0006830A0F86A2030BC704700BF3C8C0008CC
:10490000348C000890F88020012A17D00346242018
:1049100000211A6870B4C3F8840020261468084681
:10492000156824F0005425F00105156059661460DF
:1049300083F88010C3F8846070BC70470220704711
:1049400090F88030012B24D00368242270B5012513
:10495000C0F88420466E044680F880501D681A68AE
:1049600022F001021A609A6822F0604211439960B5
:104970005EB1FFF7A9FF0368002220211D601046E9
:10498000C4F8841084F8802070BD4FF00112826654
:10499000F2E70220704700BF90F88030012B24D04E
:1049A0000368242270B50125C0F88420466E0446B1
:1049B00080F880501D681A6822F001021A609A6817
:1049C00022F06062114399605EB1FFF77DFF0368DA
:1049D000002220211D601046C4F8841084F8802035
:1049E00070BD4FF001128266F2E70220704700BFEF
:1049F000704700BF704700BF704700BF90F841206C
:104A0000202A21D1034670B4D5B290F84020012A63
:104A10001CD01A682420002683F841001468304610
:104A200024F001041460146824F4805414601468A1
:104A300021431160116841F00101116083F8415078
:104A400083F8406070BC704702207047022070BC41
:104A5000704700BF90F84120202A20D1034670B44F
:104A6000D6B290F84020012A1BD01A6824200025D5
:104A700083F841001468284624F001041460146887
:104A800024F4706444EA01211160116841F00101CD
:104A9000116083F8416083F8405070BC7047022079
:104AA0007047022070BC704700F108034FF0FF31DF
:104AB0000022816002604360C0E90333704700BF99
:104AC00000230361704700BF4368026810B49C680C
:104AD0000132C1E901349C68616099605DF8044B62
:104AE00008610260704700BF30B40D686B1C10D0C5
:104AF00000F108031C465B681A68AA42FAD90268EA
:104B00004B60013299608C6061600861026030BC6A
:104B1000704704696368F2E7036910B45C68D0E920
:104B2000011284425DF8044B8A6051604FF000012D
:104B300008BF5A601A680161013A1A601868704724
:104B400008480068006880F308884FF0000080F390
:104B5000148862B661B6BFF34F8FBFF36F8F00DF6B
:104B600000BF000008ED00E0DFF80C00016841F430
:104B7000700101607047000088ED00E00E4B82B0CC
:104B800000221B680192013308D04FF0500383F3D9
:104B90001188BFF36F8FBFF34F8FFEE74FF05003C5
:104BA00083F31188BFF36F8FBFF34F8F019B002BEF
:104BB000FCD002B0704700BF0800002470B4034668
:104BC0004FF08076084D6FF0020421F00101443867
:104BD000C16343F8046C43F80C5C43F8244C43F87D
:104BE000202C70BC704700BF7D4B00080000000007
:104BF000074B19680868B0E8F04F80F30988BFF3E5
:104C00006F8F4FF0000080F311887047AFF3008082
:104C1000344600244FF0500383F31188BFF36F8FA5
:104C2000BFF34F8F0A4A13680133012B136000D082
:104C30007047084B1B6813F0FF0FF9D04FF050037B
:104C400083F31188BFF36F8FBFF34F8FFEE700BF71
:104C50000800002404ED00E0084A136843B94FF04F
:104C6000500383F31188BFF36F8FBFF34F8FFEE7BD
:104C7000013B13600BB983F31188704708000024CF
:104C8000EFF30980BFF36F8F154B1A681EF0100FFA
:104C900008BF20ED108A20E9F04F10602DE90900CF
:104CA0004FF0500080F31188BFF34F8FBFF36F8F29
:104CB00001F0BAFB4FF0000080F3118809BC1968BD
:104CC0000868B0E8F04F1EF0100F08BFB0EC108A73
:104CD00080F30988BFF36F8F704700BFAFF3008088
:104CE0003446002408B54FF0500383F31188BFF316
:104CF0006F8FBFF34F8F01F087FB18B1034B4FF05D
:104D000080521A60002383F3118808BD04ED00E08F
:104D100010B40023084A094C072109481360236096
:104D2000084C03680848A4FB03435DF8044B9B0947
:104D3000013B03601160704710E000E018E000E004
:104D400024000024D34D621014E000E0384B394AAF
:104D5000196891423ED01A68374B9A4231D0374B8E
:104D60003748384930B51A7883B0FF250724D2B2C6
:104D700001921D701B780C60DBB28DF803309DF83A
:104D800003309DF8032003F05003120603700FD583
:104D900006229DF803301046013A5B00DBB28DF825
:104DA00003309DF803301B06F3D403281BD00860A2
:104DB0004FF0500383F31188BFF36F8FBFF34F8F12
:104DC000FEE74FF0500383F31188BFF36F8FBFF3FB
:104DD0004F8FFEE74FF0500383F31188BFF36F8FBF
:104DE000BFF34F8FFEE7019A4FF44075134800243C
:104DF000154BD2B20D6002701A6842F470021A604C
:104E00001A6842F070421A60FFF782FF0F4B1C6075
:104E1000FFF7AAFE0E4A136843F040431360FFF702
:104E20008FFE01F001FBFFF7A9FE204603B030BD65
:104E300000ED00E071C20F4170C20F4100E400E0DC
:104E4000240200242802002420ED00E008000024B1
:104E500034EF00E0EFF305830F2B0ED91049114A10
:104E60005B5C12789A4208D94FF0500383F31188A3
:104E7000BFF36F8FBFF34F8FFEE70B4B0B4A1B68DF
:104E8000126803F4E063934208D94FF0500383F3B0
:104E90001188BFF36F8FBFF34F8FFEE7704700BFDE
:104EA000F0E300E0240200240CED00E028020024DE
:104EB000154B10B41A461B688342FBD35168541833
:104EC000A0420AD041684418A3420DD0904203602A
:104ED0005DF8044B18BF10607047446810462144C9
:104EE00044185160A342F1D1084C2468A342EDD08C
:104EF0009042D3E9003421445DF8044BC0E900310D
:104F000018BF1060704700BF443E00242C020024EC
:104F10002DE9F041044601F0ABF945490B68002B3F
:104F20003BD0444B1E68344231D184B3600704F156
:104F3000080302D023F00703083343B3DFF80881E6
:104F4000D8F800509D4222D33B4A146803E02768FA
:104F500027B122463C4660689842F8D30968A142CE
:104F600015D0A0EB030C17682168BCF1100F07F1F6
:104F70000807116039D9E018420730D04FF05003CC
:104F800083F31188BFF36F8FBFF34F8FFEE70027C6
:104F900001F076F93846BDE8F081284B5D0742D034
:104FA000DA1D03F5705322F007021046083B244E29
:104FB0000025DFF894C023F007034FF000479A1A4A
:104FC0000B60C3E9005532603E46CCF80020C0E9D2
:104FD0000032194B174AC3E900051760A3E7C0F870
:104FE00004C06360FFF764FF6068154A2D1A06432A
:104FF000116866608D424FF00001C8F8005038BF5C
:105000001560104A216013680133136001F038F90C
:105010007B07BFD04FF0500383F31188BFF36F8F2E
:10502000BFF34F8FFEE71A4603F570531046BDE7F6
:105030002C020024303E0024443E00243002002490
:10504000383E00243C3E0024343E0024E0B11B4A9C
:1050500050F8043C1268134210B504460BD050F8C7
:10506000081C91B14FF0500383F31188BFF36F8F89
:10507000BFF34F8FFEE74FF0500383F31188BFF368
:105080006F8FBFF34F8FFEE7704723EA020340F8AC
:10509000043C01F0EDF80A4A54F8043CA4F108007D
:1050A00011680B441360FFF703FF064A13680133CE
:1050B000BDE81040136001F0E3B800BF303E0024AB
:1050C000343E0024403E002470B51546026C044670
:1050D000866B2AB9056865B301361046A66370BDB4
:1050E0007DB9406802F072F86368216CA2680B44D5
:1050F0009342636019D32268013628466260A66332
:1051000070BDC06802F062F8226CE368216850420A
:105110009B1A8B42E36002D2A3680344E360022D32
:105120000DD001360020A66370BD01362846A66367
:1051300070BD8068013601F0A7FAA560CEE7012EA8
:105140004FF0000038BF0126C8E700BF026C72B103
:105150000B4610B4D0E902411144A142C16001D311
:105160000168C16018465DF8044B02F02FB8704723
:1051700070B50446FFF74EFD94F845506DB2002D12
:1051800015DD04F1240604E06B1E13F0FF0F5DB281
:105190000DD0636A304653B101F0C2F90028F3D054
:1051A00001F05CFA6B1E13F0FF0F5DB2F1D1FF232B
:1051B00084F84530FFF750FDFFF72CFD94F844507C
:1051C0006DB2002D15DD04F1100604E06B1E13F026
:1051D000FF0F5DB20DD02369304653B101F0A0F945
:1051E0000028F3D001F03AFA6B1E13F0FF0F5DB206
:1051F000F1D1FF2384F84430BDE87040FFF72CBDA7
:1052000038B5E0B104460D46FFF704FD00212268E1
:10521000A163FF21626084F8441084F84510D4E94A
:105220000F3003FB00F3181A13440244A360E2603A
:10523000EDB9236963B9FFF70FFD012038BD4FF0C9
:10524000500383F31188BFF36F8FBFF34F8FFEE7D7
:1052500004F1100001F064F90028ECD00A4B4FF083
:1052600080521A60BFF34F8FBFF36F8FE3E704F1F3
:105270001000FFF719FC04F12400FFF715FCFFF7FD
:10528000EBFC012038BD00BF04ED00E070B582B03A
:105290009DF8186040B94FF0500383F31188BFF3B5
:1052A0006F8FBFF34F8FFEE71C4623B30D4652B1FD
:1052B00041B94FF0500383F31188BFF36F8FBFF3F1
:1052C0004F8FFEE74AB945B14FF0500383F3118881
:1052D000BFF36F8FBFF34F8FFEE750230193019B06
:1052E000502B11D04FF0500383F31188BFF36F8F11
:1052F000BFF34F8FFEE74FF0500383F31188BFF3E6
:105300006F8FBFF34F8FFEE7002D08BF22460121AC
:10531000E06320462260256484F84610019BFFF775
:105320006FFF204684F84C6002B070BD2DE9F04755
:1053300084B0019200287FD00F4604461E46002903
:105340006AD0022E0BD1E36B012B08D04FF0500333
:1053500083F31188BFF36F8FBFF34F8FFEE701F028
:1053600083F9002871D0A6F102054FF00008DFF89C
:1053700044A1B5FA85F5C1466D0908E0FFF76CFC5C
:105380002046FFF7F5FE00F07BFF4FF00108FFF726
:1053900041FCA26BE36B9A4263D3002D61D1019B68
:1053A000002B7BD0B8F1000F42D0FFF755FC00F086
:1053B0005FFFFFF72FFC94F84430FF2B01D184F8F6
:1053C000449094F84530FF2B01D184F84590FFF7C5
:1053D00043FC01A902A801F0F9F8002862D1FFF707
:1053E00019FCA26BE36B9A42C8D1FFF735FC019917
:1053F00004F1100001F05CF82046FFF7B9FE00F060
:105400003FFF0028C1D14FF08053CAF80030BFF3EE
:105410004F8FBFF36F8FB8E7036C002B91D04FF025
:10542000500383F31188BFF36F8FBFF34F8FFEE7F5
:1054300002A801F0BFF8B8E74FF0500383F31188DA
:10544000BFF36F8FBFF34F8FFEE7019B002B8AD016
:105450004FF0500383F31188BFF36F8FBFF34F8F6B
:10546000FEE7324639462046FFF72EFE636A73B9DF
:1054700038B1104B4FF080521A60BFF34F8FBFF31B
:105480006F8FFFF7E9FB012004B0BDE8F08704F15E
:10549000240001F045F80028F3D0EAE7FFF7DCFB31
:1054A0002846F1E72046FFF763FE00F0E9FE002002
:1054B000EAE700BF04ED00E02DE9F84300284CD0F6
:1054C0008946044690461F4639B3022F0BD1E36B41
:1054D000012B08D04FF0500383F31188BFF36F8F77
:1054E000BFF34F8FFEE7FFF7B5FCEFF311864FF0E8
:1054F000500383F31188BFF36F8FBFF34F8FA26BFD
:10550000E36B9A4215D3A7F10200B0FA80F040098C
:1055100078B986F31188BDE8F883036C002BD4D0EA
:105520004FF0500383F31188BFF36F8FBFF34F8F9A
:10553000FEE794F845503A46494620466DB2A36BC3
:10554000FFF7C2FD6B1C11D06B1C01205BB284F80D
:10555000453086F31188BDE8F8834FF0500383F39C
:105560001188BFF36F8FBFF34F8FFEE7636A0BB9EC
:105570000120CEE704F1240000F0D2FF0028F7D08C
:10558000B8F1000FF4D00120C8F80000C1E700BF57
:105590002DE9F04385B00192002800F088800E4686
:1055A0000446002954D001F05FF8002844D0FFF7EA
:1055B00031FBA56B002D40F08380019B002B35D083
:1055C00002A82F4604F12409DFF82C8100F0F2FF35
:1055D000FFF742FB00F04CFEFFF71CFB94F8443051
:1055E000FF2B01D184F8447094F84530FF2B01D192
:1055F00084F84570FFF730FB01A902A800F0E6FF30
:10560000002831D1FFF706FBA36B002B39D0FFF741
:1056100023FB2046FFF7ACFD00F032FEFFF7FAFA5D
:10562000A56B002D4CD1019B002BD1D1FFF714FBB2
:10563000002005B0BDE8F083019B002BB7D04FF0F0
:10564000500383F31188BFF36F8FBFF34F8FFEE7D3
:10565000036C002BA7D04FF0500383F31188BFF3E6
:105660006F8FBFF34F8FFEE72046FFF781FD00F0FD
:1056700007FEFFF7CFFAA36B002BD7D0FFF7ECFAAA
:10568000CCE7FFF7E9FA0199484600F011FF204600
:10569000FFF76EFD00F0F4FD0028BFD14FF08053FE
:1056A000C8F80030BFF34F8FBFF36F8FB6E74FF0EE
:1056B000500383F31188BFF36F8FBFF34F8FFEE763
:1056C000013D31462046FFF741FDA56323691BB923
:1056D000FFF7C2FA0120ACE704F1100000F020FF50
:1056E0000028F5D0044B4FF080521A60BFF34F8F63
:1056F000BFF36F8FECE700BF04ED00E00023084A22
:1057000030B452F8334002EBC30524B10133082B07
:10571000F7D130BC7047686042F8331030BC704736
:10572000404B002470B504460E461546FFF772FA4A
:1057300094F84430FF2B02D1002384F8443094F8CD
:105740004530FF2B02D1002384F84530FFF784FA5F
:10575000A36B23B12046BDE87040FFF709BD04F1FB
:1057600024002A46314600F0BDFE2046BDE87040C8
:10577000FFF7FEBC08B5054B1B6800F075FF01285C
:1057800000D108BDBDE80840FFF7ACBA10E000E06A
:10579000EFF305832BB9064B186828B901221A606C
:1057A00070476FF0050070474FF0FF30704700BF43
:1057B000A840002410B5EFF3058474B9084B1A68AB
:1057C000012A07D107490222CC771A6000F00CFDAC
:1057D000204610BD4FF0FF3010BD6FF0050010BD2A
:1057E000A840002400ED00E0F0B5002587B0144685
:1057F0000595EFF3058262BB58B3FCB1A66966BBA1
:1058000018266368DB0724D4636953B34FEA930C0B
:105810002768A568002F38BF00273DB3E2685B2AE0
:1058200017D92469ABB1A4B10B460295624639463B
:105830000194009600F06CFC05460BE080221826CF
:1058400005AD0B4600962146019500F099FC012814
:105850000AD00025284607B0F0BD721E372AD0D9DD
:10586000F8E74FF0800CD3E7059DF3E7E368002BE2
:10587000F0D12369002BEDD11FFA8CF23C46DFE713
:1058800010B5EFF305842CB900B910BD00F092FDFE
:10589000204610BD6FF0050010BD00BF30B480235E
:1058A000034D044C05600C60136030BC704700BFB2
:1058B0004C4000244C3E002430B44FF48073034D20
:1058C000034C05600C60136030BC7047AC4400248E
:1058D000AC400024F0B5124C83B0FFF79BF925686B
:1058E00025B103B0BDE8F040FFF7B6B90D4F0E4E3D
:1058F0003846FFF7D9F83046FFF7D6F80B4B0C4A7D
:10590000102100950A201F6016600A4B0A4AFFF713
:10591000BDFC20600028E4D00849FFF7EFFEE0E777
:105920002C460024B0450024C4450024084500242A
:105930000C450024DC45002410450024448C00085C
:10594000914208B50061416005D8D21A83699A4234
:105950000CD3012008BD9A4201D29942F9D2074BDB
:10596000011D1868FFF7C0F8002008BD044B011D99
:105970001868FFF7B9F8002008BD00BF08450024EB
:105980000C45002410B588B0FFF7A4FF124B1B682C
:10599000CBB1002407AA06A905A8CDE90544FFF765
:1059A0008BFF05980699022223460092079ACDE9BB
:1059B00001100A490A4800F0ABFB0A4B186010B10D
:1059C000012008B010BD4FF0500383F31188BFF3DE
:1059D0006F8FBFF34F8FFEE72C4600244C8C0008DE
:1059E000D55A000830460024B0B170B5164D0446B3
:1059F00084B0286870B105290294CDE9001214DC46
:105A000000F032FE022817D00023286869461A46A3
:105A1000FFF78CFC04B070BD4FF0500383F3118886
:105A2000BFF36F8FBFF34F8FFEE71A46694600231F
:105A3000FFF742FD04B070BD28680023089A69464C
:105A4000FFF774FCE6E700BF2C4600242DE9F04187
:105A50001E4E82B04FF000080DE0DB68DC681F6866
:105A6000251D2846FFF758F8236A2046984794F8E2
:105A700028305B070AD433681A68002AEDD1144A2B
:105A800011681360316002B0BDE8F081A1690023A4
:105A90003A46204607EB010C1946674507D23068A5
:105AA0002946C4F804C02461FFF71EF8E3E7CDF8E7
:105AB0000080FFF799FF0028DDD14FF0500383F3FA
:105AC0001188BFF36F8FBFF34F8FFEE708450024A7
:105AD0000C4500242DE9F04FDFF80C8287B07F4E93
