:020000040800F2
:1000000000000424D5F1000895F100089BF10008D8
:10001000A1F10008A7F10008ADF100080000000000
:10002000000000000000000000000000C15A0008AD
:10003000B3F1000800000000115D00080D56000833
:1000400025F2000825F2000825F2000825F2000834
:1000500025F2000825F2000825F2000825F2000824
:1000600025F2000825F2000825F2000825F2000814
:1000700025F2000825F2000825F2000825F2000804
:1000800025F2000825F2000825F2000825F20008F4
:1000900025F2000825F2000825F2000825F20008E4
:1000A00025F2000825F2000825F2000825F20008D4
:1000B000C1F1000825F2000825F2000825F2000829
:1000C00025F2000825F2000825F2000825F20008B4
:1000D00025F2000825F2000825F2000825F20008A4
:1000E00025F2000825F200080000000025F20008B3
:1000F00025F2000825F2000825F2000825F2000884
:1001000025F2000825F2000825F2000825F2000873
:1001100025F2000825F2000825F2000825F2000863
:1001200025F2000825F2000825F2000825F2000853
:1001300025F2000825F2000825F2000825F2000843
:1001400025F2000825F20008000000000000000071
:1001500025F2000825F2000825F2000825F2000823
:1001600025F2000825F2000825F2000825F2000813
:1001700025F2000825F2000825F200080000000022
:1001800025F2000825F2000825F2000825F20008F3
:1001900025F2000825F2000825F2000825F20008E3
:1001A00025F2000825F2000825F2000825F20008D3
:1001B00025F2000825F2000825F2000825F20008C3
:1001C00025F2000825F2000825F2000825F20008B3
:1001D00025F2000825F2000825F2000825F20008A3
:1001E00025F2000825F2000825F2000825F2000893
:1001F00025F2000825F2000825F2000825F2000883
:1002000025F2000825F2000825F2000825F2000872
:1002100025F2000825F2000825F2000825F2000862
:1002200025F2000825F2000825F2000825F2000852
:1002300025F2000825F2000825F2000825F2000842
:1002400025F200087D4400089544000825F20008C6
:1002500025F2000825F2000825F2000825F2000822
:1002600025F2000825F2000825F2000825F2000812
:1002700025F2000825F2000825F2000825F2000802
:1002800025F2000825F2000825F200080000000011
:0802900025F2000825F2000828
:1002C0000348044B834202D0034B03B118477047E5
:1002D0007002002470020024000000000548064956
:1002E0000B1AD90F01EBA301491002D0034B03B144
:1002F00018477047700200247002002400000000BC
:1003000010B5064C237843B9FFF7DAFF044B13B15D
:100310000448AFF300800123237010BD7002002455
:100320000000000028F2000808B5044B1BB1044986
:100330000448AFF30080BDE80840CFE700000000AC
:100340007402002428F2000870B50D4E0D4D761B86
:10035000B61006D00024013455F8043B9847A64255
:10036000F9D1094E094D761B0EF05EFFB61006D08E
:100370000024013455F8043B9847A642F9D170BDDA
:10038000DCF60008DCF60008E0F60008DCF6000801
:10039000844641EA000313F003036DD1403A41D390
:1003A00051F8043B40F8043B51F8043B40F8043B4F
:1003B00051F8043B40F8043B51F8043B40F8043B3F
:1003C00051F8043B40F8043B51F8043B40F8043B2F
:1003D00051F8043B40F8043B51F8043B40F8043B1F
:1003E00051F8043B40F8043B51F8043B40F8043B0F
:1003F00051F8043B40F8043B51F8043B40F8043BFF
:1004000051F8043B40F8043B51F8043B40F8043BEE
:1004100051F8043B40F8043B51F8043B40F8043BDE
:10042000403ABDD2303211D351F8043B40F8043B7E
:1004300051F8043B40F8043B51F8043B40F8043BBE
:1004400051F8043B40F8043B103AEDD20C3205D38E
:1004500051F8043B40F8043B043AF9D2043208D086
:10046000D2071CBF11F8013B00F8013B01D30B88F8
:1004700003806046704700BF082A13D38B078DD0D6
:1004800010F003038AD0C3F10403D21ADB071CBFA8
:1004900011F8013B00F8013B80D331F8023B20F812
:1004A000023B7BE7043AD9D3013A11F8013B00F84B
:1004B000013BF9D20B7803704B7843708B788370D3
:1004C000604670478842F0B40DD98B1883420AD930
:1004D000841832B1224613F8014D02F8014D9942B9
:1004E000F9D1F0BC70470F2A0ED80346541E002ADB
:1004F000F7D001340C44013B11F8012B03F8012F14
:10050000A142F9D1F0BC704740EA01039B073BD1FF
:10051000A2F110073F0901F1200606EB071601F1D1
:10052000100300F1100453F8105C44F8105C53F809
:100530000C5C44F80C5C53F8085C44F8085C53F815
:10054000045C44F8045C1033B34204F11004EAD1B3
:100550007B1C1B0112F00C0F194402F00F05034421
:1005600015D0043DAD0803EB850C1C1F0E4656F854
:10057000047B44F8047F6445F9D10135AD002B4478
:10058000294402F00302B1E7541E0346B1E72A46AC
:10059000ACE700BFF0B4860746D0541E002A3CD01A
:1005A000CAB2034602E014F1FF3436D303F8012B3C
:1005B0009D07F8D1032C29D9CDB245EA05250F2C8A
:1005C00045EA054533D9A4F11006360903F12007A1
:1005D00007EB061703F1100242E9045542E9025500
:1005E0001032BA42F8D1721C14F00C0F03EB021255
:1005F00004F00F0613D0331F23F003030433134416
:1006000042F8045B9342FBD106F003042CB1C9B25B
:100610001C4403F8011B9C42FBD1F0BC70473446DC
:100620001346002CF3D1F8E714460346C2E71A46F6
:100630002646E0E7000000002DE9F0412DED028B99
:10064000B0EE408B84B018EE907ADDE90D64002F97
:100650009046BABFB1EE408B2D220022662E0D4689
:100660001A7017D0462E15D026F02003452B31D016
:10067000B0EE480B03AA02ABCDE900320A460C9B50
:10068000022100F0FFFD672E30D118F0010F2FD1AD
:10069000039B18E003AA02ABCDE90032B0EE480B91
:1006A0000C9B03212A4600F0EDFD0378302B00EB74
:1006B00005012FD00C9B1D68B5EE408BF1EE10FAB2
:1006C00029441CD10B461B1A236004B0BDEC028BDD
:1006D000BDE8F08103A902AB0135CDE90031B0EEF0
:1006E000480B2A460C9B022100F0CCFD472ECCD0B3
:1006F000B5EE408BF1EE10FA00EB0501E2D0039B62
:100700009942E0D930255A1C03921D70039B8B42FD
:10071000F9D3D8E7B5EE408BF1EE10FACAD00C9BB6
:10072000C5F101051D60C7E7F0B400290446BABF52
:1007300049422D232B23092904F8022B82B0437050
:100740002DDD0DF107063546194F01E01546194616
:1007500087FB0132CB17C3EBA20303EB8302A1EBB0
:1007600042023032632905F8012C05F1FF32EDDC3D
:100770003033A91EDBB28E4202F8013C0BD9214670
:1007800001E012F8013B01F8013BB242F9D10DF151
:1007900009035D1B2C44201A02B0F0BC70473031B5
:1007A0003023041DC1708370201A02B0F0BC704762
:1007B000676666662DE9F04F8BB00C4616461F46FD
:1007C000DDF850A0054601F0E3FBD0F8008040467C
:1007D00000F056FC00230893DAF800300490073349
:1007E00023F0070393ED000B9FEDAD6BB0EEC07BE4
:1007F0000833B4EE467BF1EE10FA226894F81890B4
:10080000CAF8003084ED120B76DCB4EE400BF1EE4A
:1008100010FA80F136826168481C42F480622BD065
:10082000B9F1670F62D0B9F1470F5FD000230DF126
:10083000200C07A82260CDE902C30090CDF80490F7
:100840000DF11B032846FFF7F7FE8346B9F1650F4C
:10085000079B32D8013B19464A4604F150000793E2
:10086000FFF762FF089A1318012A8246236140F3BA
:100870007E810133236132E00621616000230DF1A6
:10088000200C07A82260CDE902C300900DF11B03E4
:10089000CDF804902846FFF7CFFE09F0DF03472B81
:1008A0008346D3D1079BD91C80F2DD80A9F10209D0
:1008B0005FFA89F9B9F1650FCCD9B9F1660F00F08B
:1008C000D980089A9A4240F3E080002BD4BFC3F14C
:1008D000020101210A442261A3654FF0000A9DF83C
:1008E0001B30FBB12D2384F843301BE0002940F07E
:1008F000168101216160C1E7B5EEC00BF1EE10FA7F
:1009000002D52D2384F843306748684922F0040259
:1009100003232260B9F1470F94BF83468B462361BE
:100920004FF0000A0097334609AA2146284600F0F6
:10093000BBF9013024D0236858052CD423695A46CA
:1009400031462846B84701301AD022680998E36832
:1009500092071AD51A1A002A17DD04F119094FF067
:10096000000804E0E36809981A1A42450DDD0123E6
:100970004A4631462846B847013008F10108F1D10E
:100980004FF0FF300BB0BDE8F08F9842B8BF18466B
:100990000BB0BDE8F08FB9F1650F32D994ED127B41
:1009A000B5EE407BF1EE10FA40F084800123404A1E
:1009B00031462846B8470130E2D0DDE907239A42A4
:1009C00002DB2268D107C1D5049B42463146284646
:1009D000B8470130D4D0089B012BB6DD04F11A09C9
:1009E0004FF0000803E0089B013B4345ADDD0123C8
:1009F0004A4631462846B847013008F10108F2D18D
:100A0000BEE7089A012A40F39F8001235A463146E7
:100A10002846B8470130B3D0049B424631462846A9
:100A2000B8470130ACD094ED127BB5EE407BF1EECF
:100A300010FA089B40F09780012B40F3908004F15E
:100A40001A094FF0000804E0089B013B434540F3BE
:100A5000868001234A4631462846B847013008F1CE
:100A60000108F1D18CE7626893423FF71FAF4FF066
:100A7000670926E7002B62687EDD2361002A00F00B
:100A8000AC8001321A44226126E722682361D20732
:100A90007FF522AF5A1C22611EE700BFAFF3008032
:100AA000FFFFFFFFFFFFEF7F98F500089CF50008B0
:100AB000A8F50008079B002B65DD089BD4F858A01B
:100AC0005345A8BF5346002B994608DD5A46314688
:100AD0002846B84701303FF453AFD4F858A029EA6C
:100AE000E9731A46AAEB0303002B40F3858004F157
:100AF0001A03CDF814B04FF000099B46924604E06B
:100B0000A36DA3EB0A024A4573DD01235A46314621
:100B10002846B847013009F10109F1D130E7002337
:100B20000DF1200C07A82260CDE902C300900DF161
:100B30001B03CDF804902846FFF77EFD079BD91CC8
:100B40008346FFF6B3AE8EE7D9073FF55EAF5A4650
:100B5000012331462846B84701303FF411AF5346D0
:100B600004F15002ECE6013B0BF10102F1E72268CF
:100B7000D2077FF5B4AE7CE6002A33D12168C907DD
:100B800030D40122A7E60123444A31462846B8471B
:100B900001303FF4F5AEDDE90723134324D0049B75
:100BA000424631462846B84701303FF4E9AE079B3C
:100BB000002B70DA04F11A094FF0000803E0079BDC
:100BC0005B42434567DD01234A4631462846B84724
:100BD000013008F10108F2D1D2E62168C8077FF59B
:100BE0007BAE4EE7023276E62268D3077FF5AEAEE3
:100BF000D5E7DDF814B09A46DDE907218A4202DB29
:100C00002368D80709D5049B424631462846B84791
:100C100001303FF4B5AEDDE907215245A1EB0203F7
:100C2000D4BFA1EB0A099946B9F1000F0BDD0BEB1C
:100C30000A024B4631462846B84701303FF4A0AE81
:100C4000DDE907239B1A29EAE979A3EB0903002BC5
:100C50007FF77BAE04F11A0A4FF0000807E0DDE9E8
:100C600007239B1AA3EB090343457FF76EAE0123CD
:100C7000524631462846B847013008F10108EED106
:100C80007EE610EE903A002BBCBF2D2384F8433053
:100C9000034804493AE65A46089B51E6A8F500087D
:100CA000A0F50008A4F500082DE9F0470C46914690
:100CB0000A698968DDF820808A42B8BF0A46C9F807
:100CC000002094F8431006461F4611B10132C9F8BE
:100CD0000020236899065CD5D9F800200232C9F8B3
:100CE0000020236813F0060F19461DD1E1688A1A07
:100CF000002AD8BF194617DD04F1190A002505E0BE
:100D0000E368D9F800209B1AAB420CDD0123524660
:100D100039463046C047013005F10105F0D14FF0AA
:100D2000FF30BDE8F087216894F84330003318BFE6
:100D300001238A060AD5E1185A1C302081F84300A5
:100D4000224494F8451082F84310023304F1430220
:100D500039463046C0470130E1D02368A268216996
:100D600003F00603042B1DD08A4226DD4FF0000954
:100D7000521A91441A34002501E04D451DDA012331
:100D8000224639463046C047013005F10105F4D10D
:100D9000C5E713F0060F13D094F84330003318BFA3
:100DA0000123D3E7D9F80000E3688A42A3EB0003EC
:100DB00023EAE379DCDC002BDCDC0020BDE8F087F3
:100DC000E168D9F800208A1A002AD8BF194693DCB6
:100DD000AAE700BF2DE9F0430C46097E85B06E29D5
:100DE000064617460C98984604F1430E6DD039D943
:100DF000732900F0F68044D9752900F00481782920
:100E000040F0118178232268DFF858C284F8453019
:100E10000168150651F8043B016040F1A180D1073B
:100E200044BF42F020022260002B00F09380102289
:100E3000002184F843106068A0600028C0F2C880D8
:100E4000216821F004012160002B40F0A3800028DC
:100E500040F0C0807546082A00F0AC80AEEB050378
:100E6000236141E0632900F0E5801AD8002938D0D9
:100E7000582940F0D88084F845102268DFF8E8C18E
:100E8000C6E76F2900F0BF80702940F0CC8022684F
:100E9000DFF8D0C142F020027823226084F8453088
:100EA000B6E7642902D0692940F0BD802268036852
:100EB000110603F1040557D5196805600B46002992
:100EC00059DBDFF8A4C10A22B5E70368226861692B
:100ED0001D1D056015061B6802D4500600F1BD807B
:100EE0001960002375462361CDF800803B4603AAB4
:100EF00021463046FFF7D8FE013020D02A4623692C
:100F000039463046C047013019D022680398E3685B
:100F1000920719D51A1A002A16DD04F119090025BD
:100F200004E0E36803981A1AAA420DDD01234A4639
:100F300039463046C047013005F10105F1D14FF087
:100F4000FF3005B0BDE8F0839842B8BF184605B041
:100F5000BDE8F083226822F020022260102267E7B9
:100F6000500648BF9BB25AE75106A5D5B3F90030E9
:100F700005601946A3E76168A1602D200029C3F12F
:100F8000000384F8430002DB22F004022260DFF851
:100F9000D8C00A22754600E00B46B3FBF2F102FB13
:100FA000113093421CF8000005F8010DF4D2082A14
:100FB0007FF454AF2368DB077FF550AF6268236985
:100FC0009A423FF74BAF302305F8013C013D45E71E
:100FD000002BDFD19CF8003084F8423004F1420548
:100FE00039E703686268191D01601D680021284601
:100FF00000F0E6FF002832D0401B60602061002333
:1010000084F8433070E72268036812F0800F03F120
:1010100004051AD01B6805606F290CBF08220A223C
:10102000DFF844C004E7012384F84210236104F18F
:101030004205E4E703681A68191D0123016004F101
:10104000420584F842202361D9E712F0400F0DBF1A
:101050001B6805601B880560DEE7198041E7606852
:10106000CCE700BFC0F50008ACF5000800000000A8
:101070000000000000000000000000000000000070
:1010800090F800F06DE9024520F007016FF0000CC8
:1010900010F0070491F820F040F049804FF0000470
:1010A0006FF00700D1E9002391F840F000F108004B
:1010B00082FA4CF2A4FA8CF283FA4CF3A2FA8CF383
:1010C0004BBBD1E9022382FA4CF200F10800A4FAEA
:1010D0008CF283FA4CF3A2FA8CF3E3B9D1E904233E
:1010E00082FA4CF200F10800A4FA8CF283FA4CF375
:1010F000A2FA8CF37BB9D1E9062301F1200182FA2F
:101100004CF200F10800A4FA8CF283FA4CF3A2FA34
:101110008CF3002BC6D0002A04BF04301A4612BA42
:10112000B2FA82F2FDE8024500EBD2007047D1E945
:10113000002304F00305C4F100004FEAC50514F0D4
:10114000040F91F840F00CFA05F562EA05021CBFA5
:1011500063EA050362464FF00004A9E700000000BF
:101160002DE9F04F03690F69BB4283B0C0F286805E
:10117000013F01F1140600F1140A56F827305AF81D
:101180002720BC000133009406EB04099A42544422
:10119000B2FBF3F801943AD300252A46B646D4466A
:1011A0005EF8044BDCF800301FFA84FB08FB0B559B
:1011B0004FEA154B240C08FB04B4ADB2551BA2B288
:1011C000C2EB134215FA83F302EB23429BB243EACC
:1011D0000243F1454FEA14454CF8043B4FEA2242E2
:1011E000DED2009B5AF803308BB9019A131F9A453F
:1011F0000CD252F8043C4BB9A2F1080302E01A6881
:10120000043B1AB99A4507F1FF37F8D30761044642
:1012100001F004FA00282DDB08F1010850460023F4
:1012200056F8041B05688AB29A1A0B0C12FA85F25A
:10123000C3EB154303EB224392B242EA0342B145AA
:1012400040F8042B4FEA2343EAD25AF827200AEB4E
:1012500087037AB91A1F92450BD253F8042C42B96E
:10126000083B02E01A68043B1AB99A4507F1FF37B8
:10127000F8D32761404603B0BDE8F08F002003B0EB
:10128000BDE8F08F2DE9F04F57EC106B93B0456A35
:10129000059104460B920993CDE90267002D00F0F9
:1012A0009882296849B16A684A60012393408B603B
:1012B00000F016FF636A00221A603D1E1C9AB4BF3C
:1012C000012300231360CA4BBCBF25F000450395E2
:1012D000AB4300F0A9809DED027BB5EE407BF1EEC3
:1012E00010FA8DED067B0FD1099A012313601D9B27
:1012F000002B00F07A82BF4B1D9A1360013B0093D4
:10130000009813B0BDE8F08F10AA11A99DED060B4F
:10131000204601F0B7FA2B0D834640F09B80DDE9B3
:101320001023134403F23241202940F32783C1F1F3
:10133000400103F212408D400146029820FA01F16B
:10134000294307EE901AB8EE677B013B8DED007BD9
:10135000019DDDE90001A5F1F87101250E9541EC33
:10136000170BB7EE086B9FED9C4B37EE466B9FED6E
:101370009C7B9FED9D5BA6EE047B06EE903AB8EE5B
:10138000E66BA6EE057BFDEEC76BB5EEC07BF1EE1E
:1013900010FA16EE909A08D5B8EEE66BB4EE476BED
:1013A000F1EE10FA18BF09F1FF39D31AB9F1160F8F
:1013B00003F1FF3700F203828F4A02EBC90292ED7C
:1013C000007B9DED066BB4EEC76BF1EE10FA57D5BE
:1013D0000022002F09F1FF390D92C0F2F5810023A0
:1013E0000A93B9F1000F51DA0A9BCDF82090A3EBD4
:1013F00009030A93059BD4F824C0092BC9F10008FE
:101400004FF000094CD8052B40F3B682043B0593FE
:101410000025059B023B032B00F27F85DFE813F0DC
:10142000CD03CA03A203BD03099A42F20F731360EE
:10143000029BC5F313052B431BD11D9B002B00F012
:101440007C856E4B009308331D9A0098136013B08F
:10145000BDE8F08F079AC2F31302DDE9060100250B
:1014600042F07F51A3F2FF3341F44011109A0E95E0
:1014700075E71D9B002B40F06483614B00933FE7B1
:10148000002FC0F21E8400230D930A93059BCDF814
:101490002090092B4F444FF00008D4F824C0B2D953
:1014A00000230125CDE90B3505934FF0FF3A0021CC
:1014B000CCF80410CDF83CA0204600F0D1FD0090FF
:1014C000002800F03385636A009A1A60BAF10E0FA3
:1014D00000F2D280002D00F0CF800899002940F35F
:1014E000EA83454A01F00F0302EBC3020B1192EDB0
:1014F000007BDA0640F18D83424A9DED065B92ED5A
:10150000086B03F00F03032185EE065B5BB13D4AD8
:10151000DE0704D592ED006B013127EE067B5B10F0
:1015200002F10802F4D185EE076B0D9B3BB1B7EEDB
:10153000007BB4EEC76BF1EE10FA00F18B8407EE7E
:10154000901AB8EEE75BB1EE0C7BA5EE067B8DED55
:10155000027B039BDDE90201A3F15071BAF1000F98
:1015600000F09183089E5246BDEEC67B224D17EED9
:10157000103A05EBC205B8EEC77B15ED024B36EE0F
:10158000477B009D41EC160B0C983033DBB20135E4
:10159000002800F0FE83B6EE003B83EE045B00996A
:1015A00035EE465BB4EEC75BF1EE10FA0B704ADC29
:1015B000B7EE003B33EE476BB4EEC65BF1EE10FACC
:1015C00000F38584012A53D0B2EE044B009B1A44E9
:1015D00024E000BFAFF3008061436F63A787D23F71
:1015E000B3C8608B288AC63FFB799F501344D33F12
:1015F0000000F07FA9F50008E8F20008D4F5000823
:10160000E0F50008D8F3000833EE476BB4EEC56B85
:10161000F1EE10FA00F15B84954229D027EE047BAD
:1016200025EE045BBDEEC76B16EE103A3033DBB22D
:10163000B8EEC66B37EE467BB4EEC57BF1EE10FA22
:1016400005F8013BE0D5731C08935946204600F08D
:1016500047FD00232B70099B1A46089B13601D9BB6
:10166000002B3FF44DAE00981D6013B0BDE8F08F25
:10167000DDE90623CDE90223119B002B7EDB089ACE
:101680000E2A7BDCCC4B03EBC20393ED003B0B9BA0
:10169000002B16DABAF1000F13DC40F00883B1EE2C
:1016A000047B23EE073B9DED027BB4EEC73BF1EEDE
:1016B00010FAD0465646C0F298820B9B009DDB4341
:1016C00099E29DED027B87EE036BBDEEC66B089A37
:1016D000009D16EE103A01323033BAF1010FB8EE28
:1016E000C65B089205F8013BA3EE457B22D0B2EE23
:1016F000044B27EE047BB5EE407BF1EE10FAA4D04C
:10170000012306E027EE047BB5EE407BF1EE10FAF4
:101710009BD087EE036BBDEEC66B013316EE102A2D
:101720009A4502F13002B8EEC65B05F8012BA5EE32
:10173000437BE7D137EE077BB4EEC37BF1EE10FAC3
:101740000ADCB4EE437BF1EE10FA7FF47EAF16EEC6
:10175000103AD9077FF579AF15F8013C00996A1E58
:1017600004E0914200F0968312F8013D392B02F11A
:101770000105F6D00133DBB2137066E70C9A002A3C
:1017800039D0059A012A40F35A820AF1FF35A8455B
:1017900080F23B82A5EB08080023C1440693A846CB
:1017A000BAF1000FC0F2DB820A9B1D465344574436
:1017B0000A930121204600F0AFFD06461FE00122FA
:1017C000002F0D92BFF60BAEC3F101030A93002761
:1017D00007E6102000F0E4FB6062002800F0B1830F
:1017E000C0E901550560C56067E5744B009300983A
:1017F00013B0BDE8F08F0A9D0C9ECDF81880002D27
:101800000ADD002F08DDBD420A9A2B46A8BF3B46E1
:10181000D21A0A92ED1AFF1AB8F1000F1DD00C9BD4
:10182000002B00F08781069B002B11DD1A46314604
:10183000204600F02DFE5A4601460646204600F09E
:1018400081FD59460E90204600F04AFC0E9B9B46B7
:10185000069BB8EB030240F06E810121204600F0A8
:101860005BFDB9F1000F804600F39080059B012BD2
:1018700040F36B81002306930120B9F1000F40F083
:101880009180384410F01F0074D0C0F12003042B65
:1018900040F33E83C0F11C000A9B03440A930544B5
:1018A00007440A9B002B05DD59461A46204600F0E6
:1018B00051FE8346002F05DD41463A46204600F0A2
:1018C00049FE80460D9B002B40F01A81BAF1000FB3
:1018D00040F300810C9B002B7FD1089B01330893C0
:1018E000009D012707E0594600230A22204600F008
:1018F0001DFC0137834641465846FFF731FCBA4587
:1019000000F1300005F8010BEDDC03464FF0000A52
:10191000594601222046029300F01CFE41468346B0
:1019200000F07CFE002815F8012C40F37A816B1E34
:10193000009904E0994200F0908113F8012D392AB2
:1019400003F10105F6D001321A704146204600F03D
:10195000C7FB002E3FF479AEBAF1000F05D0B245B7
:1019600003D05146204600F0BBFB3146204600F034
:10197000B7FB6AE61C208FE701254AE50298C1F112
:10198000200100FA01F107EE901ADCE401464A4614
:10199000204600F07DFD059B012B804640F394819D
:1019A00000230693D8F8103008EB8303186900F081
:1019B00063FCC0F1200064E7E8F20008A8F5000825
:1019C000314600230A22204600F0B0FB0F9B002B7B
:1019D000064640F3928208979A46002D05DD31466F
:1019E0002A46204600F0B6FD0646069B002B40F036
:1019F0009F81B146029B009F059903F001027B1E67
:101A00000D9253440A430C920B9341465846FFF7FC
:101A1000A7FB31460290584600F000FE4A46824637
:101A20004146204600F016FE029BC2680546303350
:101A3000002A41D1014658460A9300F0EFFD29469D
:101A40000690204600F04CFB069A0A9B1AB90C99A6
:101A5000002900F03F82BAF1000F07F10105C0F242
:101A60004A81059941EA0A0A0D9951EA0A0100F0F2
:101A70004281002A00F377810B9A3B70BA4200F052
:101A80007E81594600230A22204600F04FFB4E4536
:101A9000834631464FF000034FF00A02204613D030
:101AA00000F044FB4946064600230A22204600F087
:101AB0003DFB2F468146A8E701462046069300F0ED
:101AC0000FFB0122069BC6E700F030FB2F460646BF
:101AD00081469AE7059B022B75DC0C9B002B7FF45B
:101AE0007CAF41465846FFF73BFB089A009D00F14A
:101AF00030030132089205F8013B4FF0000A07E776
:101B00004146584600F08AFD0028BFF6DFAE594630
:101B100000230A22204600F009FB089B5F1E0C9B55
:101B20008346002B7FF44CAF0F9B002B40F3DF81EB
:101B30009A46D5E642465946204600F0A9FC83461F
:101B40008BE6C04B009303337EE4DDE902120029EB
:101B50007FF490AEC2F31303002B00F0C080029B11
:101B6000069389E601230C930B9B002B55DD0F9305
:101B70009A461E460021172ECCF804107FF79CAC25
:101B8000012204235B0003F11400B042114602F16C
:101B90000102F7D9CCF804108EE401230C930B9BBF
:101BA000089A134403F1010A5646012E0F93B8BF59
:101BB0000126DFE700230C93F1E700230C93D3E722
:101BC000DDF83CA00897BAF1000F7FF476AD4146EE
:101BD00053460522204600F0A9FA014680465846A1
:101BE00000F01CFD00287FF768AD009D089B3122A6
:101BF00005F8012B0133013341462046089300F0DC
:101C00006FFA002E7FF4B1AE1FE5A8EB0503069333
:101C1000C6E59DED025B022178E401230B939A4611
:101C200045E403D1029BDB073FF581AE6B1E01E06B
:101C300013F8012D302A03F10105F9D085E60E9A3B
:101C4000002A00F0A28003F233430A9ACDF81880EC
:101C500015461A441F440A92ABE5089A01320892CD
:101C6000009A3123137070E607EE901AB1EE0C5B08
:101C7000B8EEE77BA7EE065B8DED025B039BDDE92B
:101C80000201A3F15071B1EE047B36EE477B41ECCB
:101C9000160BB4EEC67BF1EE10FA00F30781B1EE3D
:101CA000466BB4EEC67BF1EE10FA7FF5E1AC4FF077
:101CB0000008464601E540F09F809DED026B022141
:101CC00033E400220D927FE5029B002B7FF468AE87
:101CD000DDE90212C2F31303002B40F038815A4BA6
:101CE0001340002B00F0E6800A9B01330A93012386
:101CF00001370693C0E50899002A01F10101089116
:101D000012DD594601222046059300F023FC41468E
:101D1000834600F083FC0028059B40F3D280392BDA
:101D200000F0BF80029B3133B2463B704E460CE65A
:101D30007168204600F094F90546002800F00A81F9
:101D4000336902339A0006F10C010C30FEF720FBD8
:101D500029460122204600F0FDFB81464AE60A9B07
:101D6000A3EB0A0525E5089A392B02F10102089236
:101D700000F097800133B2463B704E46E5E5089A85
:101D80000132B24608924E46C2E5109BC3F13603BB
:101D90005BE7009926EE044B012A0B7012D0B2EEDD
:101DA000045B009B1A4427EE057BBDEEC76B16EE65
:101DB000103A303305F8013B9542B8EEC66B37EE6A
:101DC000467BF0D1B6EE006B34EE065BB4EEC75B3B
:101DD000F1EE10FA70D436EE446BB4EEC76BF1EE50
:101DE00010FA7FF745AC00E0154615F8013C302BA2
:101DF00005F1FF32F8D026E4089B144A5B4203F059
:101E00000F0102EBC10292ED006B9DED067B1B11F1
:101E100027EE066B79D0B0EE467B0D4A00200221FA
:101E2000DD0705D592ED005B0131012027EE057B32
:101E30005B1002F10802F3D1002806FE076BFFF7E2
:101E400074BB00BFE0F500080000F07FE8F2000876
:101E5000D8F30008BAF1000F3FF406AF0F9A002A3A
:101E60007FF706ACB2EE044BB1EE0C5B013107EE2E
:101E7000901A26EE046BB8EEE77BA6EE075B8DEDBD
:101E8000025B039BDDE90201A3F15071089B5E1E1A
:101E9000FFF76ABB089B0133089331231370FFF7E8
:101EA000D4BB3922B2463A704E4640E54FF00008A6
:101EB00046469AE60693DFE4731C089315F8013C46
:101EC0004CE47FF431AFDA077FF52EAF27E7721CC1
:101ED000089243E4089A392B02F10102089207F1B3
:101EE0000105DED0BAF1000F3FF71CAF1CE7059BE0
:101EF000022B3FF765AE0897F3E5059B022B3FF7F2
:101F00005FAE0897DDF83CA067E50221FFF70DBB47
:101F10003FF4C7ACC0F13C00BEE40025CCF804504F
:101F20002946204600F09CF80090D0B9134B144885
:101F300000224FF4D57100F07FFE124B0093FFF7A3
:101F4000DFB90246104B0E48EA2100F075FE029BF5
:101F5000069327E50246094B094840F2EA2100F0C2
:101F60006BFE636A009A1A604FF0FF3A01230B95EB
:101F7000CDF83CA00C93FFF77FBB00BF30F6000804
:101F8000FCF50008D4F50008E4F50008F0307047CF
:101F90000048704754010024004870475401002451
:101FA000024B0146186800F0D1BD00BF00000024BC
:101FB000024B0146186800F073BD00BF000000240A
:101FC00001F0FF01102A2BDB10F0070F08D010F8EA
:101FD000013B013A8B422DD010F0070F42B3F6D1EE
:101FE000F0B441EA012141EA014122F007047FF007
:101FF00000070023F0E80256083C85EA010586EA5E
:10200000010685FA47F5A3FA87F586FA47F6A5FA99
:1020100087F68EB9EED1F0BC01F0FF0102F00702A5
:1020200032B110F8013B013A83EA010313B1F8D150
:102030000020704701387047002D06BF3546033831
:10204000073815F0010F07D1013015F4807F02BF6A
:10205000013015F4C03F0130F0BC0138704700BFBB
:1020600070B5446A06460D465CB1E368A3B153F807
:102070002500E8B1026843F825200023C0E90333B6
:1020800070BD1020FFF78CFF04467062E8B100239A
:10209000C0E901330360C36021220421304600F00F
:1020A000F1FC736AE060DB68002BE0D1002070BDBA
:1020B000012101FA05F4621D3046920000F0E2FCB5
:1020C0000028F3D0C0E90154D7E70246024B034889
:1020D000662100F0B1FD00BFE4F5000844F60008F9
:1020E00030B5456A83B0044655B139B1636A4A6870
:1020F000DB6853F82200086043F8221003B030BDBB
:1021000010200191FFF74CFF0199606220B1C0E9F6
:1021100001550560C560E8E70246024B02488A2186
:1021200000F08AFDE4F5000844F60008F0B50C69FB
:1021300083B00D46064601F1140C0027DCF80000C0
:1021400081B202FB0133190C000C02FB00109BB2A0
:10215000013703EB0043BC424CF8043B4FEA104309
:10216000ECDC3BB1AA68A24207DD05EB8402013436
:1021700053612C61284603B0F0BD69680193304675
:102180000131FFF76DFF019B0746A0B12A6901935A
:102190000232920005F10C010C30FEF7F9F82946E5
:1021A00030463D46FFF79CFF05EB8402019B5361DF
:1021B00001342C61DEE70246024B0348B52100F0F2
:1021C0003BFD00BF30F6000844F600082DE9F84357
:1021D000264C089E1D46083384FB034C092D4FEA0C
:1021E000E373904607460C46C3EB6C0236DD0123D1
:1021F00000215B009A4201F10101FADC3846FFF749
:102200002FFF68B30123B8F1090FC0E9043613DCCE
:102210000A344FF0090845450CDDA5EB08052544B7
:1022200014F8013B0146303B0A223846FFF77EFF97
:10223000A542F5D1BDE8F88304F109094E464444AE
:1022400016F8013B0146303B0A223846FFF76EFF85
:10225000B442F5D1A8F108044C44DCE70021CDE7F5
:102260000246034B0348CE2100F0E6FC398EE338EA
:1022700030F6000844F60008020C12040346CAB9FE
:102280000304102013F07F4F04BF1B02083013F02B
:10229000704F04BF1B01043013F0404F04BF9B007C
:1022A0000230002B05DB13F0804F00F1010008BF66
:1022B000202070470020E5E7036813F0070201467D
:1022C00007D0DA0720D4980722D55B080B600120DD
:1022D000704798B2B0B91B0C102013F0FF0F04BF69
:1022E0001B0A08301A0704BF1B0904309A0704BFF1
:1022F0009B080230DA0703D45B0800F1010005D027
:102300000B6070471046E8E70020704720207047B8
:102310009B080B600220704710B50C460121FFF7A7
:102320009FFE024618B10123C0E9043410BD034BDF
:1023300003484FF4A07100F07FFC00BF30F60008A6
:1023400044F600082DE9F04F0E691769BE4283B0CC
:102350000C46154605DB3A462B4637460D461646D3
:102360001C46D5E9011307EB06084345B8BF013108
:10237000FFF776FE009000287FD0009B03F1140A3F
:102380000AEB8809CA4505D25346002143F8041BCD
:102390009945FBD804F1140E0EEB860B05F11403DE
:1023A000DE4503EB870753D2CDF80480984605E05D
:1023B000090C28D1F3450AF1040A47D95EF8041B39
:1023C0008EB2002EF4D045465446002355F8041B27
:1023D00020688AB21FFA80FC06FB02C2090C000CBE
:1023E000134406FB010202EB13429BB243EA024391
:1023F000AF4244F8043B4FEA1243E7D823605EF84B
:10240000041C090CD6D0DAF8003040461A4654466F
:102410004FF0000C0588120C01FB052294449BB27E
:1024200043EA0C4344F8043B50F8043B22681B0C7D
:1024300095B201FB035303EB1C4387424FEA134C55
:10244000E8D8F34523600AF1040AB7D8DDF8048020
:10245000B8F1000F0BDD59F8043CA9F104091BB1D8
:1024600005E059F8043D13B9B8F10108F9D1009815
:10247000C0F8108003B0BDE8F08F0246024B03485D
:1024800040F25D1100F0D8FB30F6000844F6000879
:102490002DE9F04312F0030383B0144607462DD113
:1024A0000E46A4101CD07A6A8AB39568002D39D0E4
:1024B000E3074FF0000906D4641011D0286898B1E2
:1024C0000546E307F8D531462A463846FFF73AFF76
:1024D000314680463846FFF703FE64104646EDD18C
:1024E000304603B0BDE8F0832A4629463846FFF758
:1024F00029FF2860C0F800900546E2E7013B124A38
:1025000052F823200023FFF711FE0646C9E71020EA
:10251000FFF746FD0246786280B10023C0E901332F
:102520000360C36040F2712138460192FFF7F4FE68
:10253000019A0023906005460360B9E7034B044805
:102540004FF4D77100F078FBD8F20008E4F50008EA
:1025500044F600082DE9F0470E690D464FEA621A6D
:10256000D1E901135644741C9C429146074604DD90
:102570005B009C4201F10101FADC3846FFF770FD77
:10258000804600283FD0BAF1000F00F114000EDDA4
:102590000AF1050A4FEA8A0A08EB0A0103460022FB
:1025A00043F8042B8B42FBD1AAF1140A5044296949
:1025B00005F1140319F01F0903EB810C1BD0C9F1BD
:1025C000200E0022196801FA09F1114340F8041B9A
:1025D00053F8042B9C4522FA0EF2F3D80260002A2D
:1025E00018BF26463846C8F810602946FFF778FD20
:1025F0004046BDE8F087043853F8042B40F8042F18
:102600009C45F9D8EEE70246024B034840F2D91147
:1026100000F012FB30F6000844F6000830B40B69F5
:1026200005460069C01A10D19B00143514311944B5
:102630002B4401E09D4208D253F8044D51F8042D7B
:102640009442F7D003D24FF0FF3030BC70470120E6
:1026500030BC70472DE9F84316460B691269A3EBAD
:102660000208B8F1000F0D4667D1920001F114077E
:1026700006F11401BB18114401E09F4261D253F8E6
:10268000042D51F8044DA242F7D050D36968FFF7EA
:10269000E7FC00285FD02F693369C0F80C8006F191
:1026A0001402143505EB870C02EB830E00F11406BF
:1026B000002100E0264652F8044B55F8048B1FFA1F
:1026C00084F911FA88F3210CA3EB0903C1EB18413B
:1026D00001EB234134469BB243EA014396454FEA5E
:1026E000214144F8043BA846E4D8AC4516D9264617
:1026F00058F8042B11FA82F3191401EB12419BB222
:1027000043EA0143C44546F8043B4FEA2141EFD870
:102710000CF1FF36761B26F00306264423B956F843
:10272000043D013F002BFAD00761BDE8F8832B463A
:102730004FF0010835461E46A8E7F8DB4FF00008C9
:10274000A4E70021FFF78CFC60B101220023C0E95F
:102750000423BDE8F8830246064B07484FF4107186
:1027600000F06AFA0246034B034840F2322100F0BF
:1027700063FA00BF30F6000844F60008124B10EE72
:10278000902A1A40A2F15073002B04DD0020194654
:1027900041EC100B70475B421B15132B07DC4FF409
:1027A0000022002042FA03F141EC100B7047143B69
:1027B0001E2BDABF4FF0004222FA03F3012300215F
:1027C000184641EC100B70470000F07FF8B5046923
:1027D00000F1140606EB840454F8045C2846FFF765
:1027E0004BFDC0F120030A280B60A4F1040131DD88
:1027F0008E42A0F10B001AD254F8081C10B3C0F19D
:102800002007854021FA07F31D4345F07F53A4F1CB
:102810000805AE4201FA00F043F4401303D254F825
:102820000C1CF9400843024643EC102BF8BD40B1A4
:1028300005FA00F040F07F53002043F440130246B5
:10284000F2E7014645F07F5343F440130A4643EC58
:10285000102BF8BD8E42C0F10B0738BF54F8081C8E
:1028600025FA07FC00F115004CF07F5334BFF94006
:10287000002105FA00F043F4401340EA010243EC62
:10288000102BF8BD2DE9F043884683B00121154691
:1028900057EC106BFFF7E4FB0446002850D0C7F359
:1028A0000A59C7F31303B9F1000F01D043F48013A1
:1028B000002E019325D068460096FFF7FDFC002806
:1028C0003AD0DDE90013C0F1200203FA02F20A4314
:1028D000C34001936261002B14BF02210121A36157
:1028E0002161B9F1000F17D0A9F2334909EB0003B8
:1028F000C0F13500C8F800302860204603B0BDE8BC
:10290000F08301A8FFF7D8FC019B6361012120300F
:102910002161B9F1000FE7D104EB8103A0F232404D
:10292000C8F800001869FFF7A7FCC0EB4110286049
:10293000204603B0BDE8F083DDE900236261CAE709
:102940000246034B034840F20A3100F075F900BF1C
:1029500030F6000844F6000830B587B00C4604A9EC
:102960000546FFF733FF204605A98DED000BFFF765
:102970002DFFDDE9042320692969D31A091A03EB25
:1029800041138DED020B002BDDE90001DDE902456D
:102990000CDD019A02EB0351CDE900019DED007BB6
:1029A0009DED026B87EE060B07B030BD039AC3EBBB
:1029B000033302EB0355CDE90245EFE7172808DDA5
:1029C000B7EE000BB2EE047B013820EE070BFBD113
:1029D0007047034B03EBC00090ED040B704700BF42
:1029E000D8F2000870B414694E1E02F11403761177
:1029F00003EB840101368B4200EB86060CD2041FE8
:102A000053F8045B44F8045F9942F9D88B1A153BDC
:102A100023F0030304331844864204D9002340F80A
:102A2000043B8642FBD870BC704700BF03694A1163
:102A3000934210B400F1140410DA04EB83039C42B7
:102A40001ED253F8040C043B18B115E053F8042DC2
:102A500092B99C42FAD35DF8044B704704EB8203B1
:102A6000EDDD11F01F01EAD054F8220020FA01F246
:102A700002FA01F18842E2D001205DF8044B704770
:102A80000020E8E738B502FB01F4214600F05EF8CB
:102A9000054618B122460021FDF77CFD284638BDC9
:102AA00000293CD038B551F8043C0C1F002BB8BFAE
:102AB000E418054600F026F9234B1A682AB1A24211
:102AC0000DD921686018824223D0626028461C60BC
:102AD000BDE8384000F018B9A34203D81A4653683D
:102AE000002BF9D111685018A04219D024D82168C0
:102AF0006018834206D0636054602846BDE83840C1
:102B000000F002B9D3E9000301446360216054601E
:102B1000F3E7D2E90002014462602160D6E7704722
:102B200020680144501883421160E6D1D3E90003C4
:102B3000014453601160E0E70C232B602846BDE898
:102B4000384000F0E1B800BF8C020024F8B5CD1C7D
:102B500025F0030508350C2D38BF0C25002D064641
:102B600033DBA94231D82A4F00F0CCF83A6852B191
:102B700013685B1B04D43FE023685B1B29D5224606
:102B80005468002CF8D1796800293BD0294630469A
:102B900000F040F8431C28D0C41C24F00304A042D9
:102BA00005D0211A304600F035F801301DD02560DF
:102BB000304600F0A9F804F10B0020F00700231DB7
:102BC000C21A01D01B1AA350F8BD0C22326000209B
:102BD000F8BD0B2B05D8A242636811D05360E7E71C
:102BE000144623601C442560E2E70C233046336022
:102BF00000F08AF80020F8BD0B2BF1D8536814467A
:102C00003B60D5E7304600F005F87860BEE700BFCE
:102C10008C02002438B5074C002305460846236083
:102C200001F038F9431C00D038BD2368002BFBD0DD
:102C30002B6038BD984D002400B50A4C2668054627
:102C400085B01C46F06852B1074B0091CDE90132C6
:102C500006492B46224600F021F800F001FB044B08
:102C60001A46F2E70000002478F6000888F600080B
:102C700084F6000808B513460022FFF7DDFF00BF09
:102C80000CB400B583B004AB53F8042B019300F0EF
:102C900081F803B05DF804EB02B070470EB410B5D4
:102CA00083B005AB064C53F8042B01930146206812
:102CB00000F070F803B0BDE8104003B0704700BFEB
:102CC0000000002410B4034CD4F8E440A4465DF89E
:102CD000044B60476400002482B049B15AB16BB123
:102CE00013780B601278101C18BF012002B07047D7
:102CF00001A9002AF3D1104602B070476FF001001D
:102D0000F4E700BF704700BF704700BF9368013B06
:102D1000002B936011DA10B49469A34209DB0A29ED
:102D200007D01368581C1060197008465DF8044BF2
:102D300070475DF8044B00F09BB91368581C106095
:102D400019700846704700BF9BB1F8B513440F4691
:102D500006465D1E541E01E0AC4208D03A4614F807
:102D6000011F3046FFF7D2FF431CF5D1F8BD00200C
:102D7000F8BD0020704700BF936810B5144613B922
:102D80005360184610BD00F053FC0023C4E9013322
:102D900010BD00BF2DE9F04F9FB08B4690461C46FA
:102DA000039018B18369002B00F0B780A24B9B45BC
:102DB00000F0B980A14B9B4500F0C780A04B9B451C
:102DC00004BF039BD3F80CB0BBF80C30180740F1DC
:102DD000B280DBF81030002B00F0AD8030238DF88E
:102DE000323098F800300594002120220B918DF8A4
:102DF0003120944E0127002B00F08780252B00F016
:102E00001581454603E0252B00F0A38025466B780D
:102E10006C1C002BF7D1B4EB080A76D0424653461F
:102E200059460398FFF790FF01306ED00B9B6A78EC
:102E300053440B93002A68D000234FF0FF32013433
:102E40000693CDE908338DF85B301C93079205E0BB
:102E5000069A07FA03F313432C46069325460522E8
:102E600015F8011B3046FFF7ABF8AA46831B002874
:102E7000EED1069BD90644BF20228DF85B20217835
:102E80001A0744BF2B228DF85B202A2966D1059AA8
:102E90001168043200290592C0F29D800991617881
:102EA000A51C2E2973D0684C03222046FFF788F812
:102EB000002800F08680001B069B402404FA00F0E6
:102EC0000343069305F10108297860488DF8301016
:102ED0000622FFF775F8002800F083805C4B002B7A
:102EE00072D005AB00935A465A4B039806A9FDF7DA
:102EF00061FC8146B9F1FF3F07D00B9B4B440B931C
:102F000098F80030002B7FF479AFBBF80C305B06EB
:102F100018D40B981FB0BDE8F08F00F069FB464B4A
:102F20009B457FF447AF039BD3F804B0BBF80C304C
:102F300018073FF54EAF5946039800F011F90028E5
:102F40003FF44CAF4FF0FF30E4E7039BD3F808B0F9
:102F50003AE7B4EB080A3FF46FAF5FE7A1F1300244
:102F6000092A88BFA2469CD8099B01E02C4601355E
:102F7000297803EB830302EB4303A1F13002092A12
:102F8000AA46F3D92E2904F1020509938BD19AF8A8
:102F900001102A292FD1059B9AF802101A6807926E
:102FA0000433002A05930AF103050AF1020338DB12
:102FB000254C032220469A46FFF702F800287FF4AA
:102FC0007AAFA84655467FE7059B073323F00703F2
:102FD0000833059391E7494243F0020309910693B0
:102FE0005DE705AB00935A461A4B039806A9FDF717
:102FF000F1FE81467EE7A1F130020023092A079302
:1030000001D915E05546697803EB830302EB4303CE
:10301000A1F13002092A05F1010AF3D9023507931B
:1030200041E74FF0FF329A4607923CE7444603E7F8
:10303000AA46013537E700BF44F5000824F500082B
:1030400004F50008C8F60008D0F60008D4F6000819
:10305000B5070008492D000810B4044C13460A4671
:10306000014620685DF8044BFFF794BE0000002481
:10307000F8B50D461446064608B1836943B3254B9F
:103080009C422AD0244B9C4229D0244B9C4208BF0E
:10309000F468A389A269A2601A0722D5236903B341
:1030A00022686169D31AEDB299422F4629DD0133B6
:1030B000A168501C0139A1602060157062699A42B4
:1030C00016D0A389DB0701D50A2D11D03846F8BDEB
:1030D00000F08EFA0F4B9C42D4D17468D9E7B468E3
:1030E000D7E72146304600F03BF838B92369D7E7E7
:1030F0002146304600F052F90028E7D04FF0FF3764
:10310000E4E72146304600F049F90028F6D122686C
:103110000123CDE744F5000824F5000804F5000874
:10312000024B0A4601461868FFF7A2BF00000024C0
:1031300010B4034CD4F8E040A4465DF8044B60475B
:103140006400002449B1FF2A02D80A7001207047A8
:103150008A2303604FF0FF3070470846704700BF76
:103160003B4B70B51D6806460C460DB1AB69DBB133
:10317000384B9C421ED0384B9C424AD0374B9C4225
:1031800008BFEC68B4F90C2093B2190718D5206970
:1031900008B313F001022CD0636900225B42A361E3
:1031A000A26060B3002070BD284600F021FA294BD0
:1031B0009C42E0D16C68B4F90C2093B21907E6D4B4
:1031C000DD063CD5580726D4206942F00803A381C8
:1031D0009BB20028DDD103F42072B2F5007FD8D075
:1031E0003046214600F026FCA389206913F0010235
:1031F000D2D1990758BF6269A2600028D2D1B4F930
:103200000C301A06CFD543F04003A3814FF0FF30B6
:1032100070BDAC68B6E7616B51B104F144039942EB
:1032200004D03046FFF73CFCB4F90C200023636364
:1032300000232069636022F024022060C5E742F089
:103240004002092333604FF0FF30A28170BD00BF00
:103250000000002444F5000824F5000804F50008E7
:1032600008B5062000F0DCFC012000F029FE00BFBC
:103270008B891A072DE9F0410C46804641D44A68F3
:10328000002A59DDE66A002E53D00022D8F80050FB
:10329000216AC8F8002013F4805251D1012340461E
:1032A000B047431C5FD0A389E66A216A5F0705D552
:1032B0006268636B801A0BB1236CC01A024600234C
:1032C0004046B047461C45D1D8F80030B4F90C2030
:1032D000002B55D01D2B01D0162B5AD1236900226B
:1032E000C4E90032616BC8F8005011B304F1440323
:1032F000994202D04046FFF7D3FB00206063BDE84F
:10330000F0810E69AEB10D680E6099070CBF63695C
:103310000023AD1BA3600AE02B463246A76A216A50
:103320004046B8470028A5EB000506440ADD002DFD
:10333000F2DC0020BDE8F0810A6C002AA2DCF8E78C
:10334000606DB3E7A38943F04003A3814FF0FF30E2
:10335000BDE8F0812269A389226000226260DA045C
:10336000C0D56065BEE7D8F80030002B9BD01D2B80
:103370000CD0162B0AD0A38943F04003A381D9E7D0
:103380002169C4E90013D304ACD5EAE7C8F80050BA
:10339000CFE742F04002A281CCE700BF0B6923B324
:1033A00010B5044682B008B18369BBB1104B994295
:1033B00012D0104B994216D00F4B994208BFE168CA
:1033C000B1F90C302BB1204602B0BDE81040FFF738
:1033D0004FBF002002B010BD6168F1E7019100F01D
:1033E00007F90199E2E7A168EAE70020704700BF0A
:1033F00044F5000824F5000804F5000820B1054B49
:1034000001461868FFF7CABF034B0449186800F06B
:10341000B9BA00BF00000024D0F200089D330008B4
:1034200000207047014900F0ADBA00BF9D3300088D
:103430000020704770B54A1E682505FB02F50E4650
:1034400005F17401FFF782FB044640B100210C3006
:10345000666005F168022160A060FDF79BF82046D8
:1034600070BD00BF1E4B70B51D68AB69064643B307
:103470004835D5E90134013B05D51EE0013B5A1C16
:1034800004F1680419D0B4F90C20002AF6D1002503
:10349000144B6566C4E90055A560C4E90455A561EF
:1034A0002946E360082204F15C00FDF773F8C4E9E3
:1034B0000D55C4E91255204670BD2C682CB1254627
:1034C000D7E7284600F010F8D2E704213046FFF78E
:1034D000B1FF044628600028F1D10C233360EAE7ED
:1034E000D0F200080100FFFF2DE9F84F334B3449BB
:1034F0001A68816290424FF00003C0E912330365FD
:1035000004BF012383610546FFF7ACFF68602846CE
:10351000FFF7A8FFA8602846FFF7A4FF6E68E860E1
:1035200000240423F3607466C6E90044B460C6E96D
:103530000444B461214606F15C000822FDF72AF834
:10354000DFF888B0AF68DFF888A0DFF88890DFF890
:1035500088801C4BC6F83080C6E9086BC6E90AA90A
:103560002146FB6008227C66C7E90044BC60C7E9CD
:103570000444BC6107F15C00FDF70CF8EE68124BE7
:10358000C7F83080C7E9087BC7E90AA92146F3607C
:103590007466C6E90044B460C6E90444B46106F147
:1035A0005C000822FCF7F6FF0123C6E9086BC6E9B8
:1035B0000AA9C6F83080AB61BDE8F88FD0F20008E8
:1035C000253400080900010012000200913C0008A7
:1035D000B93C0008F93C0008193D0008024B0349BA
:1035E000186800F0CFB900BFD0F200089D33000882
:1035F000836903B978E77047704700BF704700BF21
:10360000704700BF704700BF024B0349186800F0C5
:1036100093B900BF0000002421340008024B034985
:10362000186800F089B900BF000000243134000898
:103630009368002B00F002812DE9F04FB1F90C30B6
:103640009BB20C46190783B08246904635D5226955
:103650009AB313F00202D8F800603DD00027D4F8E6
:1036600028B0D4F820C0DFF8CC923D464D452B461B
:103670003A4628BF4B4661465046D5B1D847002848
:1036800040F3D280D8F808301B1A07442D1AC8F826
:103690000830002B00F0B780D4F820C0D4F828B050
:1036A0004D452B463A4628BF4B4661465046002DB5
:1036B000E4D1D6E900750836D8E721465046FFF731
:1036C0004FFD002840F03081B4F90C30D8F800608C
:1036D0009BB213F00202C1D113F0010940F0B08097
:1036E000A76820684D46002D54D09A0540F1BC8053
:1036F000AF42BB4600F2E78013F4906F2FD0D4E9BD
:10370000041707EB4707A0EB010B07EBD777681C03
:103710007F105844B8423A4684BF07463A465B0594
:1037200040F1E98011465046FFF710FA002800F0FA
:10373000F5805A4621690190FCF72AFEA289019B77
:1037400022F4906242F08002A281A7EB0B0203EB0D
:103750000B00676123612060A2602F46AB465A468A
:103760004946FCF7AFFEA2682368D21B5B442F4694
:10377000A26023600025D8F80830DB1BB944C8F8E4
:103780000830002B3FD0B4F90C30A76820689BB2FA
:10379000002DAAD1D6E900950836A4E70BF108035D
:1037A00053E902679B460833002FF9D03A460A21B5
:1037B0003046FEF705FC002853D00130A0EB060987
:1037C0004B46D4E904122068BB4228BF3B468842DE
:1037D00003D9A5681544AB4219DC9A427DDC134637
:1037E000A56A216A32465046A847051E1CDDB9EB82
:1037F00005096BD00120D8F808305B1B2E447F1BD5
:10380000C8F8083013BB002003B0BDE8F08F314684
:103810002A46FCF757FE23682B4423602146504676
:10382000FFF7BCFD0028E2D0B4F90C3043F04003B0
:103830004FF0FF30A38103B0BDE8F08F0020704748
:1038400033469146104617464E469B46002FA5D05C
:103850000028B5D13A460A213046FEF7B1FB0028D0
:10386000ABD17B1C9946ACE72369834215D36169D0
:10387000A94212D82E4BA76A9D4294BF2B466FF0E7
:1038800000434A4693FBF1F3504601FB03F3216AE0
:10389000B847071EC8DDED1B6DE7AF4228BF2F46B6
:1038A0003A464946FCF70EFEA3682268DB1B3A4401
:1038B000A3602260002BEED121465046FFF76EFD3B
:1038C0000028E8D0B0E72F46AB4648E721465046EF
:1038D000FFF764FD00288ED0A6E71A463146019313
:1038E000FCF7F0FD019BA1682268C91A1A44A16087
:1038F00022601D467BE7504600F0E6F803460028AC
:103900007FF423AF21695046FFF7CAF8B4F90C30B1
:103910000C2223F08003CAF8002087E70C23CAF8A2
:103920000030B4F90C3081E74FF0FF306CE700BF96
:10393000FEFFFF7F00FCFF7F2DE9F04110F14807FB
:103940001BD088460026D7E90154013D0FD4A38936
:10395000012B05F1FF3506D9B4F90E3001332046AD
:1039600001D0C04706436B1C04F16804EFD13F68E7
:10397000002FE8D13046BDE8F0813E463046BDE834
:10398000F08100BF2DE9F84310F148071FD08846A9
:1039900006464FF00009D7E90154013D11D4A3892F
:1039A000012B05F1FF3508D9B4F90E30013321465A
:1039B000304602D0C04749EA00096B1C04F1680494
:1039C000EDD13F68002FE6D14846BDE8F883B946FF
:1039D0004846BDE8F88300BF70B50C46B1F90E103B
:1039E000002996B016461D4613DB6A4600F0C0F962
:1039F00000280EDB019A02F47042A2F50052B2FADE
:103A000082F252094FF4806300202A60336016B0BE
:103A100070BDA38900221B062A6004D54023002024
:103A2000336016B070BD4FF480630020336016B071
:103A300070BD00BF8A8992070B4606D501F1470287
:103A400001211A60C3E90421704770B582B001AB4F
:103A50006A460C460646FFF7BFFF0099054630460A
:103A6000FFF774F8B4F90C3070B11649B162019ADD
:103A70000099206043F08003A381C4E904018AB95E
:103A80002B43A38102B070BD9A05FBD423F003033E
:103A900004F1470243F002030121A3812260C4E93B
:103AA0000421EFE73046B4F90E1000F075F910B9B3
:103AB000B4F90C30E4E7A38923F0030343F00103D6
:103AC0001BB2DDE72534000809B3F8B51446CAB1C6
:103AD00006460D4600F088F9A04202D32F4638462C
:103AE000F8BD21463046FFF731F807460028F6D0EA
:103AF00022462946FCF74CFC30462946FEF7D0FF0B
:103B00003846F8BD2746FEF7CBFF3846F8BD1146CC
:103B1000FFF71CB810B580210446FFF717F8606462
:103B200040B1031F00227C3043F8042F8342FBD1B5
:103B3000002010BD4FF0FF3010BD00BF436C0BB133
:103B400000207047E6E700BF1F2970B5054608D87A
:103B5000436C16460C464BB153F8240043F82460DE
:103B600070BD162202604FF0FF3070BDFFF7D2FF2C
:103B700008B96B6CF0E74FF0FF3070BD1F2938B506
:103B800021D8426C05460C466AB152F8213053B137
:103B9000012B16D0591C10D00025204642F8245085
:103BA0009847284638BD284600F070F8224601465E
:103BB0002846BDE8384000F055B8162303600120C0
:103BC00038BD002038BD162303604FF0FF3038BDEC
:103BD0001F2921D838B5436C05460C4683B153F8EC
:103BE000242003EB84034AB1511C10D0012A0CD0CD
:103BF000002520461D609047284638BD012038BD6D
:103C0000FFF788FF28B96B6CE9E7032038BD022075
:103C100038BD4FF0FF3038BD4FF0FF30704700BF68
:103C2000024B01461868FFF7A9BF00BF000000243F
:103C3000024B0A4601461868FFF786BF00000024C1
:103C4000034B1868436C0BB10020704762E700BF5C
:103C500000000024024B01461868FFF7B9BF00BFFF
:103C60000000002438B50B46074C0546114618469F
:103C70000023236000F0F6F8431C00D038BD236811
:103C8000002BFBD02B6038BD984D002400F0DAB833
:103C900010B50C46B1F90E1000F0AEF8002803DBA9
:103CA000636D0344636510BDA38923F48053A3812E
:103CB00010BD00BF002070472DE9F0411646B1F954
:103CC0000C201F46D3050C460546B1F90E1009D449
:103CD00022F48052A2813B4632462846BDE8F0419C
:103CE00000F01EB80022022300F068F8B4F90C209E
:103CF000B4F90E10ECE700BF10B50C46B1F90E1088
:103D000000F05CF8A389421C0EBF23F4805343F4F7
:103D100080536065A38110BDB1F90E1000F016B894
:103D200070B50D46084C114606461A462846002333
:103D3000236000F0BDF8431C00D070BD2368002B49
:103D4000FBD0336070BD00BF984D002438B5074CE0
:103D5000002305460846236000F064F8431C00D0A9
:103D600038BD2368002BFBD02B6038BD984D002454
:103D700038B50B46074C054611461846002323600C
:103D800000F058F8431C00D038BD2368002BFBD04E
:103D90002B6038BD984D002438B5074C00230546EC
:103DA0000846236000F056F8431C00D038BD236855
:103DB000002BFBD02B6038BD984D002470B50D460C
:103DC000084C114606461A4628460023236000F098
:103DD00051F8431C00D070BD2368002BFBD033602A
:103DE00070BD00BF984D002451F8043C181F002BF3
:103DF000BCBF0B58C018704770B50D46084C114633
:103E000006461A4628460023236000F03BF8431C70
:103E100000D070BD2368002BFBD0336070BD00BFA5
:103E2000984D0024024B58221A604FF0FF30704723
:103E3000984D0024024B58221A604FF0FF30704713
:103E4000984D0024024B58221A604FF0FF30704703
:103E5000984D0024024B58221A600020704700BF82
:103E6000984D0024024B58221A604FF0FF307047E3
:103E7000984D0024024B58221A604FF0FF307047D3
:103E8000984D0024024B58221A604FF0FF307047C3
:103E9000984D0024044A05491368002B08BF0B46BF
:103EA000184410601846704794020024A04D002466
:103EB000024B58221A604FF0FF307047984D002493
:103EC000FEE700BFF0B5ABB008AF244E07F1040C1D
:103ED0006D4606F10C040FCC0FC594E80F0085E881
:103EE0000F0096E80E00604600F0FCFC1C4B07F14A
:103EF00030041D460FCD0FC495E8070084E8070085
:103F0000D7F880303A1D10469847164B1A683B1D6B
:103F10001146184600F028F8012004F043F9114B2F
:103F20001A683B1D1146184600F037F80D4B19680A
:103F30000C4B5A683B1D184600F071F83B1D0949AF
:103F4000184600F043F8074B9A683B1D1146184687
:103F500000F080F800BF8C37BD46F0BDD0010024D2
:103F6000FC0100241802002480B586B000AF786000
:103F700039600123BB603B68FB6001233B61002388
:103F80007B617B68D3F8803007F1080211467868BE
:103F9000984700BF1837BD4680BD80B586B000AFDA
:103FA000786039600223BB603B68FB6001233B61A2
:103FB00000237B617B68D3F8803007F1080211464B
:103FC0007868984700BF1837BD4680BD80B588B077
:103FD00000AF786039603B68DA683B681B691A4358
:103FE0003B685B691A433B689B691A433B68DB6922
:103FF0001343FB610423FB603B681B683B610123A7
:104000007B61FB69BB617B68D3F8803007F10C02F0
:1040100011467868984700BF2037BD4680BD80B5FF
:1040200088B000AFF860B9607A607B683B61BB68BC
:104030007B610823BB610023FB61FB68D3F8803000
:1040400007F110021146F868984700BF2037BD46B7
:1040500080BD000080B582B000AF786039607B68B9
:104060004833396818460AF008FC0346002B03D091
:104070007821034801F0F7F900BF0837BD4680BD3D
:1040800040F20008F0B58BB006AF4FF000637B60E4
:104090007B6893FAA3F33B603B68BB60BB68002B73
:1040A00001D1202303E0BB68B3FA83F3DBB2013B09
:1040B000FB60164AFB681361144E6D4606F10C0452
:1040C0000FCC0FC594E8030085E8030096E80E00C6
:1040D0000F4800F0EBF90E4B1B6F0D4898470C484A
:1040E00000F018F80A4800F005F90021084800F02F
:1040F0007BF8074800F02AF8054800F09DF90448CD
:1041000000F078F900BF1437BD46F0BD3802002436
:104110007C4C002480B582B000AF786000217868C4
:1041200000F094F80021786800F0BAF8786800F0A0
:10413000E1F80121786800F089F80121786800F041
:10414000AFF800BF0837BD4680BD000080B592B013
:1041500000AF78600023FB814FF44073BB6285237E
:104160003B610023FB6200233B634FF040737B63A2
:1041700000237B620223BB630023FB6300233B64B9
:1041800000237B647B685B6F07F11002114678683F
:1041900098477B68DB6F07F10E02114678689847F5
:1041A0000021786800F0D9F881233B61FA8940F654
:1041B0000F7313409AB20B4B13439BB2FB817B6886
:1041C0005B6F07F110021146786898477B689B6F18
:1041D00007F10E0211467868984700BF4837BD4680
:1041E00080BD00BF8080FFFF80B590B000AF7860D9
:1041F0000B46FB70FB78002B02D14FF4407301E0BB
:104200004FF480733B62B723BB6000237B620023C3
:10421000BB620023FB620023FB6100237B6300235E
:10422000BB630023FB63FB781946786800F095F8C0
:104230007B685B6F07F108021146786898477868D9
:1042400000F058F800BF4037BD4680BD80B590B043
:1042500000AF78600B46FB70FB78002B02D14FF467
:10426000407301E04FF480733B626623BB60002320
:104270007B620023BB620023FB620023FB610023FF
:104280007B630023BB630023FB637B685B6F07F1E9
:10429000080211467868984700BF4037BD4680BD88
:1042A00080B590B000AF78600B46FB70FB78002BB8
:1042B00002D14FF4407301E04FF480733B629923C5
:1042C000BB6000237B620023BB620023FB620023F0
:1042D000FB6100237B630023BB630023FB637B68DC
:1042E0005B6F07F1080211467868984700BF4037B6
:1042F000BD4680BD80B596B000AF78604FF4407386
:10430000BB6305233B620023FB6300233B644FF048
:1043100040737B6402237B630023FB6400233B65C3
:1043200000237B650023BB600023BB6110233B613E
:104330004FF48003FB6140F20113FB6002237B61B9
:104340007B68D3F8803007F1080207F12001786814
:10435000984700BF5837BD4680BD80B596B000AFC6
:1043600078600B46FB70FB78002B02D14FF4407352
:1043700001E04FF48073BB6306233B620023FB63C1
:1043800000233B6400237B6400237B630023FB64E6
:1043900000233B6500237B657B685B6F07F1200290
:1043A00011467868984740F20223BB6040F202232E
:1043B000FB600023BB6102237B6110233B614FF450
:1043C0008003FB6105233B62FB78002B02D14FF495
:1043D000407301E04FF480737B647B68D3F88030D6
:1043E00007F1080207F120017868984700BF5837A5
:1043F000BD4680BD80B590B000AF78604FF480734B
:104400003B623523BB6000237B620023BB62002339
:10441000FB620023FB6100237B630023BB6300235B
:10442000FB637B685B6F07F1080211467868984769
:1044300000BF4037BD4680BD80B590B000AF78600A
:104440004FF480733B62F523BB6000237B62002343
:10445000BB620023FB620023FB6100237B6300231C
:10446000BB630023FB637B685B6F07F108021146A7
:104470007868984700BF4037BD4680BD80B500AF23
:10448000034B1B684C33184605F0ACF800BF80BDE9
:10449000004D002480B500AF034B1B68C4331846A1
:1044A00005F0A0F800BF80BD004D002484B0B0B47A
:1044B00083B000AF786007F11C0080E80E007B68D5
:1044C0000F4A1A677B680F4A5A677B680E4A9A67D9
:1044D0007B680E4ADA677B680D4AC3F880207B68E8
:1044E00003F14C0407F11C050FCD0FC40FCD0FC411
:1044F0002B68236000BF0C37BD46B0BC04B07047CA
:104500001545000819480008494800087D4800087A
:10451000B148000880B582B000AF78607B68DA6C83
:104520007B681A607B681A6D7B685A607B685A6D7D
:104530007B689A607B689A6D7B68DA607B68DA6D6D
:104540007B681A617B681A6E7B685A617B685A6E59
:104550007B689A617B68DA6E7B68DA617B68DA6E09
:104560007B681A627B68184606F0EAFA0346002B5D
:1045700003D02121034800F076FF00BF0837BD4675
:1045800080BD00BF64F2000880B594B000AF7860D1
:104590009B4BD3F8D4309A4A43F48043C2F8D430CA
:1045A000974BD3F8D43003F48043BB63BB6B944B7D
:1045B000DB6F934A43F48043D367914BDB6F904AA0
:1045C00023F48043D3678E4BD3F8E0308C4A43F01A
:1045D0000203C2F8E0308A4BD3F8E03003F0020364
:1045E0007B637B6B864BD3F8E030854A43F0400316
:1045F000C2F8E030824BD3F8E03003F040033B6375
:104600003B6B7F4BD3F8E0307D4A43F00803C2F8A0
:10461000E0307B4BD3F8E03003F00803FB62FB6A29
:10462000774BD3F8E030764A43F02003C2F8E0300D
:10463000734BD3F8E03003F02003BB62BB6A704BCE
:10464000D3F8E0306E4A43F02003C2F8E0306C4B00
:10465000D3F8E03003F020037B627B6A684BD3F829
:10466000E030674A43F02003C2F8E030644BD3F8EF
:10467000E03003F020033B623B6A614BD3F8E0304B
:104680005F4A43F04003C2F8E0305D4BD3F8E030BE
:1046900003F04003FB61FB69594BD3F8E030584A03
:1046A00043F08003C2F8E030554BD3F8E03003F01C
:1046B0008003BB61BB69524BD3F8E030504A43F0F2
:1046C0008003C2F8E0304E4BD3F8E03003F08003B3
:1046D0007B617B694A4BD3F8E030494A43F04003A1
:1046E000C2F8E030464BD3F8E03003F040033B61C2
:1046F0003B69434BD3F8E030414A43F04003C2F8F2
:10470000E0303F4BD3F8E03003F04003FB60FB6840
:104710000423FB6302233B640323BB6400237B6409
:104720000923FB6407F13C031946364805F084FE73
:104730004023FB6301237B640A23FB6407F13C03F2
:104740001946314805F078FE4FF40063FB630023FF
:104750007B640923FB6407F13C0319462B4805F0F1
:104760006BFE0423FB630923FB6407F13C0319463A
:10477000274805F061FE4FF40073FB630A23FB64D6
:1047800007F13C031946234805F056FE0823FB6356
:104790000923FB6407F13C0319461D4805F04CFE54
:1047A0008023FB630923FB6407F13C031946194886
:1047B00005F042FE4FF40073FB6307F13C0319461A
:1047C000114805F039FE4023FB6307F13C0319460D
:1047D000104805F031FE4FF48043FB6307F13C03C2
:1047E0001946094805F028FE00220F215C2004F03C
:1047F00061FD5C2004F078FD00BF5037BD4680BDF0
:10480000004402580004025800180258000C0258D4
:10481000001C02580014025880B582B000AF7860C6
:1048200039607B6801223968184606F0FDF90346B5
:10483000002B03D07721034800F015FE00BF083796
:10484000BD4680BD64F2000880B582B000AF7860DC
:1048500039607B6841F288323968184606F042FABE
:104860000346002B03D07F21034800F0FCFD00BF6E
:104870000837BD4680BD00BF64F2000880B582B035
:1048800000AF786039607B6841F288323968184639
:1048900006F0BAFA0346002B03D08721034800F044
:1048A000E2FD00BF0837BD4680BD00BF64F20008CE
:1048B00080B584B000AFF860B9607A60F86841F202
:1048C00088337A68B96806F03CFB0346002B03D0B6
:1048D0008F21034800F0C7FD00BF1037BD4680BDE3
:1048E00064F2000884B0B0B483B000AF786007F120
:1048F0001C0080E80E007B680B4ADA677B680B4A75
:10490000C3F880207B681D4607F11C040FCC0FC53F
:104910000FCC0FC594E8070085E8070000BF0C37EF
:10492000BD46B0BC04B0704731490008BD4900081D
:1049300080B582B000AF78607B681A687B689A6443
:104940007B685A687B68DA647B689A687B681A655A
:104950007B68DA687B685A657B681A697B689A6548
:104960007B685A697B68DA657B689A697B681A6636
:104970007B68DA697B685A667B681A6A7B689A6624
:104980007B685A6A7B68DA667B689A6A7B681A6712
:104990007B6803F148027B682C331946104609F006
:1049A000FBFE0346002B03D01F21034800F05BFDF4
:1049B00000BF0837BD4680BD80F20008B0B590B09A
:1049C00000AF786039607B6807F10C0403F148059B
:1049D0000FCD0FC40FCD0FC40FCD0FC42B682360B4
:1049E00007F10C034FF6FF723968184609F010FF03
:1049F0000346002B03D02921034800F034FD00BFFB
:104A00004037BD46B0BD00BF80F2000880B590B011
:104A100000AF78607F4BD3F8D4307E4A43F48053A4
:104A2000C2F8D4307B4BD3F8D43003F48053BB624C
:104A3000BB6A784BD3F8D430764A43F00103C2F80E
:104A4000D430744BD3F8D43003F001037B627B6A1B
:104A5000704BD3F8E0306F4A43F00803C2F8E030FF
:104A60006C4BD3F8E03003F008033B623B6A694BC0
:104A7000D3F8E030674A43F01003C2F8E030654BEA
:104A8000D3F8E03003F01003FB61FB69614BD3F80E
:104A9000E030604A43F02003C2F8E0305D4BD3F8C9
:104AA000E03003F02003BB61BB695A4BD3F8E03020
:104AB000584A43F04003C2F8E030564BD3F8E03098
:104AC00003F040037B617B69524BD3F8E030514ADD
:104AD00043F08003C2F8E0304E4BD3F8E03003F0EF
:104AE00080033B613B694B4BD3F8E030494A43F4C8
:104AF0008073C2F8E030474BD3F8E03003F48073A2
:104B0000FB60FB6802233B6301237B630323BB63DE
:104B10000C23FB634CF20373FB6207F12C03194671
:104B20003D4805F089FC4FF68373FB6207F12C03C7
:104B300019463A4805F080FC4FF63F03FB6207F147
:104B40002C031946364805F077FC48F23713FB6210
:104B500007F12C031946334805F06EFC4FF6E0735D
:104B6000FB6207F12C0319462F4805F065FC40F263
:104B7000FF63FB6207F12C0319462C4805F05CFC2F
:104B80002B4B4FF080425A60294B4FF080529A6075
:104B9000274B8022DA60264B00221A61244B40F218
:104BA00002225A61224B40F608029A61204B2022D1
:104BB000DA611F4B80221A621D4B4FF000725A625D
:104BC0001B4B0022DA621A4B00221A63184B802218
:104BD0009A62174B00225A63154B00229A63144BBA
:104BE000144A1A607B68124A1A63114A7B6813647C
:104BF0000F4805F04BFE0E4805F0FCFD00220F218A
:104C00007A2004F057FB7A2004F06EFB00BF403797
:104C1000BD4680BD00440258000C025800100258E6
:104C20000014025800180258001C025800200258B4
:104C3000980200244000005280B584B000AF4FF6C7
:104C4000FF73FB6003F0D2FA024642F6FF73134093
:104C5000002B0DD103F0CAFA024641F2FF231340A4
:104C6000002B02D1314B01221A60314B01221A6014
:104C700000BF304B1B6803F40043002B04D0FB68DB
:104C80005A1EFA60002BF4DCFB68002B03DA2521A6
:104C9000294800F0E8FB05F0E9FE00F055F903F0C3
:104CA0001DFA00F05BF8234BD3F8E030214A43F4BF
:104CB0000023C2F8E0301F4BD3F8E03003F40023A8
:104CC000BB60BB6800F0F0F91A4BD3F8E030194A2A
:104CD00043F00073C2F8E030164BD3F8E03003F035
:104CE00000737B607B68002005F056FD00210020EA
:104CF00005F06CFD4FF6FF73FB6000BF0D4B1B68AA
:104D000003F40043002B04D1FB685A1EFA60002B09
:104D1000F4DCFB68002B03DA3D21074800F0A3FB1D
:104D200000F00CF800BF1037BD4680BD086104518B
:104D300008810051004402589CF2000880B500AF81
:104D4000FFF7A0F9FFF7BEF800F0DCFA00F07AFAFE
:104D500000F0DCF900F048FA00BF80BD80B5CEB0AD
:104D600000AF07F1EC034C2200211846FBF712FCC0
:104D700007F1CC03202200211846FBF70BFC04208E
:104D800005F084FE07F1080300221A606A4BDB6A13
:104D9000694A23F00103D362674BDB6A03F0010227
:104DA00007F108031A60654B9B69644A43F440436A
:104DB0009361624B9B6903F4404207F108031A6058
:104DC00007F108031B6800BF5C4B9B6903F40053A9
:104DD000B3F5005FF8D15A4B9B6A23F00303584A9E
:104DE00043F0020393620B23C7F8EC304FF4803397
:104DF000C7F8F0300123C7F8F8304023C7F8FC307B
:104E00000123C7F800310223C7F810310223C7F885
:104E100014310223C7F818314023C7F81C3102238C
:104E2000C7F820310D23C7F824310223C7F82831F1
:104E30000C23C7F82C310023C7F830310023C7F802
:104E4000343107F1EC03184606F0BEFA0346002B96
:104E500003D07A213B4800F006FB07F10C0319222E
:104E60005A6207F10C034FF4A8729A6207F10C031F
:104E70000222DA6207F10C0302225A6307F10C03E3
:104E800007221A6307F10C034FF480221A6007F11E
:104E90000C034FF40012C3F8882007F10C031846E6
:104EA00007F0C4FA3F23C7F8CC300323C7F8D0304B
:104EB0000023C7F8D4300823C7F8D8304023C7F8F8
:104EC000DC304023C7F8E0304FF48063C7F8E430AB
:104ED0004023C7F8E83007F1CC030221184606F05A
:104EE00083FE0346002B03D09721164800F0BBFA3F
:104EF0004FF480220021002007F02CF8104B1B6893
:104F00000F4A43F0800313600D4BD3F8F4300C4A82
:104F100043F00203C2F8F430094BD3F8F43003F045
:104F200002023B1D1A603B1D1B6803F06BF900BFBA
:104F300007F59C77BD4680BD000400580048025824
:104F4000004402589CF2000880B584B000AF04F021
:104F5000D9F901233B704FF010437B601B233B7258
:104F60000323FB720023FB730023BB7300237B73BB
:104F700000237B700023BB7200237B7201233B73F1
:104F80003B46184604F0F6F901233B704FF01043FE
:104F90007B601A233B720323FB720023FB73012304
:104FA000BB7300237B7301237B700023BB72002340
:104FB0007B7201233B733B46184604F0DBF9012367
:104FC0003B704FF050437B6018233B720323FB720E
:104FD0000023FB730123BB7300237B7302237B70CD
:104FE0000023BB7200237B7201233B733B461846B0
:104FF00004F0C0F901233B704FF010537B60122383
:105000003B720323FB720023FB730123BB7300235A
:105010007B7303237B700023BB7200237B7200230E
:105020003B733B46184604F0A5F901233B704FF053
:1050300080537B6011233B720323FB720023FB73BD
:105040000123BB7300237B7304237B700023BB729B
:1050500000237B7201233B733B46184604F08AF918
:1050600001233B700F4B7B600E233B720323FB72CB
:105070000023FB730123BB7300237B7305237B7029
:105080000023BB7200237B7201233B733B4618460F
:1050900004F070F9042004F04DF900BF1037BD464C
:1050A00080BD00BF0000041080B5B0B000AF3B462B
:1050B000C02200211846FBF76DFA4FF400233B6035
:1050C00002237B600C23BB600223FB6002233B6155
:1050D00002237B61C023BB612023FB6100233B6271
:1050E0000023C7F8A4303B46184607F09FF9034653
:1050F000002B04D040F21511034800F0B4F900BFB2
:10510000C037BD4680BD00BF9CF2000880B485B0AA
:1051100000AF344B5B6903F48033002B38D1314B43
:105120000022C3F88420BFF34F8F00BF2D4BD3F86C
:105130008030FB60FB685B0BC3F30E03BB60FB6856
:10514000DB08C3F309037B60BB685A0143F6E073D5
:1051500013407A68920723491343C1F860327B6891
:105160005A1E7A60002BEFD1BB685A1EBA60002B22
:10517000E5D1BFF34F8F00BF1A4B5B69194A43F467
:1051800080335361BFF34F8F00BFBFF36F8F00E0D9
:1051900000BF144B5B6903F40033002B1BD1BFF33A
:1051A0004F8F00BFBFF36F8F00BF0E4B0022C3F8BD
:1051B0005022BFF34F8F00BFBFF36F8F00BF094B6B
:1051C0005B69084A43F400335361BFF34F8F00BF5C
:1051D000BFF36F8F00E000BF00BF1437BD465DF81E
:1051E000047B704700ED00E080B58AB000AF124B41
:1051F000D3F8E030104A23F40023C2F8E0300F4B1C
:105200007B6000233B7200237B720023BB61002381
:10521000FB6101237B623B1D184604F0EFF8034657
:10522000002B04D04FF49771054800F01CF900BF23
:105230002837BD4680BD00BF00440258004C0258CC
:105240009CF2000880B58AB000AF07F11403002279
:105250001A605A609A60DA601A61284BD3F8E0301D
:10526000264A43F00103C2F8E030244BD3F8E03083
:1052700003F001033B613B69204BD3F8E0301F4A48
:1052800043F00403C2F8E0301C4BD3F8E03003F0E5
:105290000403FB60FB68194BD3F8E030174A43F076
:1052A0008003C2F8E030154BD3F8E03003F0800300
:1052B000BB60BB68114BD3F8E030104A43F00803E1
:1052C000C2F8E0300D4BD3F8E03003F008037B6008
:1052D0007B684FF480737B610223BB610023FB6119
:1052E00000233B6200237B6207F114031946044844
:1052F00005F0A2F800BF2837BD4680BD0044025823
:105300000000025880B58AB000AF00237B62454B95
:10531000D3F8E030434A43F08073C2F8E030414BA9
:10532000D3F8E03003F080737B607B686422002157
:105330003D48FBF72FF907F108031C22002118460E
:10534000FBF728F9384B394A1A60374B1B68384A43
:10535000934204D0344B1B68364A934201D1364BFA
:1053600000E0364B9968304B1B68314A934204D0B9
:105370002D4B1B682F4A934201D12F4A00E02F4A40
:105380002F4B0B409360284B4FF440325A60264B12
:1053900008229A60244B0122DA60234B01225A75BD
:1053A000214B00221A77204B00229A621E4B4FF4A9
:1053B00080625A621C4B08221A611B4B01229A61BF
:1053C000194B01221A62184B0022DA62164B002296
:1053D0001A75154B4FF480521A63174B1B68164A07
:1053E00043F440031360104803F0A8F803467B62BF
:1053F0007B6A002B11D1134BBB600623FB60052396
:105400003B610023FB610423BB6107F108031946DC
:10541000054803F03DFA03467B627B6A184628374D
:10542000BD4680BD004402580403002400600258B9
:105430000020024000210240002302400063025885
:10544000E03000FE000084CB80B582B000AF786011
:105450007B681B68B3F1804F01D102F083FE00BF6F
:105460000837BD4680BD80B483B000AF7860396036
:105470003B68002B00D0FEE700BF0C37BD465DF84F
:10548000047B704780B400AF3F4BD3F888303E4A6E
:1054900043F47003C2F888303B4B1B693A4A43F02F
:1054A00010031361394B1B6803F00F03062B07D859
:1054B000364B1B6823F00F03344A43F00703136095
:1054C000334B1B68324A43F001031360304B002218
:1054D0001A612F4B1A682E492E4B13400B602B4B31
:1054E0001B6803F00803002B07D0284B1B6823F030
:1054F0000F03264A43F007031360254B00229A61ED
:10550000234B0022DA61224B00221A62204B224AEE
:105510009A621F4B214ADA621D4B214A1A631C4BC7
:1055200000225A631A4B1E4A9A63194B0022DA630F
:10553000174B1B4A1A64164B00225A64144B1B6803
:10554000134A23F480231360114B00221A66154B73
:105550005B6A144A43F480435362134B1A68134B3B
:105560001340B3F1005F02D2114B01221A60114BBC
:1055700043F2D2021A60044B4FF000629A6000BFFF
:10558000BD465DF8047B704700ED00E0002000524E
:10559000004402587FEDF6EA000202020000FF011B
:1055A00080020101C00000580010005C0000FFFFF5
:1055B000088100510040005280B483B000AF034620
:1055C0003960FB80B7F90630002B0ADB3B68DAB2A2
:1055D0000C49B7F906301201D2B20B4483F800230C
:1055E0000AE03B68DAB20849FB8803F00F03043B8A
:1055F0001201D2B20B441A7600BF0C37BD465DF8DB
:10560000047B704700E100E000ED00E080B500AFF2
:10561000054B1B6802F034F90346012B01D000F062
:10562000ABFB00BF80BD00BF10E000E080B500AF65
:1056300000216FF00400FFF7BFFF00BF80BD000036
:1056400080B483B000AFEFF305833B603B68002B71
:1056500003D06FF005037B600CE00A4B1B68002B46
:1056600005D1084B01221A6000237B6002E04FF055
:10567000FF337B607B6818460C37BD465DF8047BC2
:10568000704700BF6803002480B582B000AFEFF31D
:1056900005833B603B68002B03D06FF005037B6004
:1056A00010E00B4B1B68012B09D1FFF7BFFF084B24
:1056B00002221A6001F09CFC00237B6002E04FF0A4
:1056C000FF337B607B6818460837BD4680BD00BF4E
:1056D0006803002480B58EB004AFF860B9607A60CA
:1056E00000233B61EFF305837B617B69002B7ED157
:1056F000FB68002B7BD080233B621823FB610023D7
:105700007B624FF0FF33BB617B68002B45D07B6829
:105710001B68002B02D07B681B687B627B689B69DF
:10572000002B02D07B689B69FB61FB69002B08D0D2
:10573000FB69382B05D87B685B6803F00103002BFD
:1057400001D0002354E07B685B69002B03D07B68A9
:105750005B699B083B627B689B68002B0ED07B6873
:10576000DB685B2B0AD97B681B69002B06D07B6842
:105770005B69002B02D00123BB6110E07B689B6852
:10578000002B0CD17B68DB68002B08D17B681B6980
:10579000002B04D10023BB6101E00023BB61BB6986
:1057A000012B10D17B681B697A6892680292019381
:1057B000FB690093BB683A6A796AF86801F042FABB
:1057C00003463B6113E0BB69002B10D13B6A9AB2E0
:1057D00007F110030193FB690093BB68796AF868CD
:1057E00001F08DFA0346012B01D000233B613B6998
:1057F00018462837BD4680BD80B584B000AF7860BC
:10580000EFF30583BB60BB68002B03D06FF005038B
:10581000FB6007E00023FB607B68002B02D0786808
:1058200001F0B2FBFB6818461037BD4680BD000092
:1058300080B485B000AFF860B9607A60FB68074A51
:105840001A60BB68064A1A607B6880221A6000BF33
:105850001437BD465DF8047B704700BF6C0300241D
:10586000C803002480B485B000AFF860B9607A60E6
:10587000FB68074A1A60BB68064A1A607B684FF4E7
:1058800080721A6000BF1437BD465DF8047B704714
:10589000C80500242406002480B483B000AF7860DB
:1058A0007B6803F108027B685A607B684FF0FF3227
:1058B0009A607B6803F108027B68DA607B6803F119
:1058C00008027B681A617B6800221A6000BF0C37EF
:1058D000BD465DF8047B704780B483B000AF78604C
:1058E0007B6800221A6100BF0C37BD465DF8047B5F
:1058F000704780B485B000AF786039607B685B68C2
:10590000FB603B68FA685A60FB689A683B689A607B
:10591000FB689B683A685A60FB683A689A603B6823
:105920007A681A617B681B685A1C7B681A6000BF22
:105930001437BD465DF8047B704780B485B000AF76
:10594000786039603B681B68BB60BB68B3F1FF3FA0
:1059500003D17B681B69FB600CE07B680833FB604C
:1059600002E0FB685B68FB60FB685B681B68BA6809
:105970009A42F6D2FB685A683B685A603B685B689B
:105980003A689A603B68FA689A60FB683A685A60BD
:105990003B687A681A617B681B685A1C7B681A60CE
:1059A00000BF1437BD465DF8047B704780B485B0F6
:1059B00000AF78607B681B69FB607B685B687A6816
:1059C00092689A607B689B687A6852685A60FB6844
:1059D0005B687A689A4203D17B689A68FB685A6070
:1059E0007B6800221A61FB681B685A1EFB681A60FC
:1059F000FB681B6818461437BD465DF8047B70478A
:105A000080B485B000AFF860B9607A60FB68043B91
:105A1000FB60FB684FF080721A60FB68043BFB6020
:105A2000BB6823F00102FB681A60FB68043BFB6063
:105A30000C4AFB681A60FB68143BFB607A68FB68E1
:105A40001A60FB68043BFB60FB686FF002021A609F
:105A5000FB68203BFB60FB6818461437BD465DF8C9
:105A6000047B7047695A000880B485B000AF0023FA
:105A70007B60124B1B68B3F1FF3F0AD04FF050031D
:105A800083F31188BFF36F8FBFF34F8FFB6000BFAD
:105A9000FEE74FF0500383F31188BFF36F8FBFF31E
:105AA0004F8FBB6000BF00BF7B68002BFCD000BFE6
:105AB00000BF1437BD465DF8047B704764020024C4
:105AC000074B19680868B0E8F04F80F30988BFF306
:105AD0006F8F4FF0000080F311887047AFF30080A4
:105AE0004C46002400BF00BF08480068006880F3EF
:105AF00008884FF0000080F3148862B661B6BFF3E7
